{
  "_format": "hh-sol-artifact-1",
  "contractName": "FundAllocation",
  "sourceName": "contracts/FundAllocation.sol",
  "abi": [
    {
      "inputs": [
        {
          "internalType": "address",
          "name": "member",
          "type": "address"
        }
      ],
      "stateMutability": "payable",
      "type": "constructor"
    },
    {
      "inputs": [],
      "name": "FundAllocation_AlreadyVoted",
      "type": "error"
    },
    {
      "inputs": [],
      "name": "FundAllocation_InactiveProposal",
      "type": "error"
    },
    {
      "inputs": [],
      "name": "FundAllocation_InsufficientFunds",
      "type": "error"
    },
    {
      "inputs": [],
      "name": "FundAllocation_InvalidProposal",
      "type": "error"
    },
    {
      "inputs": [],
      "name": "FundAllocation_NoSuchDepartment",
      "type": "error"
    },
    {
      "inputs": [],
      "name": "FundAllocation_NotAMember",
      "type": "error"
    },
    {
      "inputs": [],
      "name": "FundAllocation_TransactionFailed",
      "type": "error"
    },
    {
      "inputs": [
        {
          "internalType": "uint256",
          "name": "proposalId",
          "type": "uint256"
        }
      ],
      "name": "activateProposal",
      "outputs": [],
      "stateMutability": "nonpayable",
      "type": "function"
    },
    {
      "inputs": [
        {
          "internalType": "address",
          "name": "_proposer",
          "type": "address"
        },
        {
          "internalType": "uint256",
          "name": "_amount",
          "type": "uint256"
        },
        {
          "internalType": "string",
          "name": "_title",
          "type": "string"
        },
        {
          "internalType": "string",
          "name": "_description",
          "type": "string"
        },
        {
          "internalType": "string",
          "name": "_department",
          "type": "string"
        },
        {
          "internalType": "uint256",
          "name": "_deadline",
          "type": "uint256"
        },
        {
          "internalType": "address payable",
          "name": "_recepient",
          "type": "address"
        }
      ],
      "name": "createProposal",
      "outputs": [
        {
          "internalType": "uint256",
          "name": "",
          "type": "uint256"
        }
      ],
      "stateMutability": "nonpayable",
      "type": "function"
    },
    {
      "inputs": [
        {
          "internalType": "uint256",
          "name": "proposalId",
          "type": "uint256"
        }
      ],
      "name": "finalizeProposal",
      "outputs": [],
      "stateMutability": "nonpayable",
      "type": "function"
    },
    {
      "inputs": [],
      "name": "listProposals",
      "outputs": [
        {
          "components": [
            {
              "internalType": "uint256",
              "name": "id",
              "type": "uint256"
            },
            {
              "internalType": "address",
              "name": "proposer",
              "type": "address"
            },
            {
              "internalType": "address payable",
              "name": "recepient",
              "type": "address"
            },
            {
              "internalType": "uint256",
              "name": "amount",
              "type": "uint256"
            },
            {
              "internalType": "uint256",
              "name": "deadline",
              "type": "uint256"
            },
            {
              "internalType": "string",
              "name": "title",
              "type": "string"
            },
            {
              "internalType": "string",
              "name": "description",
              "type": "string"
            },
            {
              "internalType": "string",
              "name": "concernedDepartment",
              "type": "string"
            },
            {
              "internalType": "bool",
              "name": "isActive",
              "type": "bool"
            },
            {
              "internalType": "bool",
              "name": "isCompleted",
              "type": "bool"
            },
            {
              "internalType": "uint256",
              "name": "yesCount",
              "type": "uint256"
            },
            {
              "internalType": "uint256",
              "name": "noCount",
              "type": "uint256"
            },
            {
              "internalType": "uint256",
              "name": "totalVoters",
              "type": "uint256"
            }
          ],
          "internalType": "struct FundAllocation.ProposalExternalList[]",
          "name": "",
          "type": "tuple[]"
        }
      ],
      "stateMutability": "view",
      "type": "function"
    },
    {
      "inputs": [],
      "name": "n_proposals",
      "outputs": [
        {
          "internalType": "uint256",
          "name": "",
          "type": "uint256"
        }
      ],
      "stateMutability": "view",
      "type": "function"
    },
    {
      "inputs": [
        {
          "internalType": "uint256",
          "name": "proposalId",
          "type": "uint256"
        }
      ],
      "name": "numberOfVoters",
      "outputs": [
        {
          "internalType": "uint256",
          "name": "",
          "type": "uint256"
        }
      ],
      "stateMutability": "view",
      "type": "function"
    },
    {
      "inputs": [
        {
          "internalType": "uint256",
          "name": "",
          "type": "uint256"
        }
      ],
      "name": "proposals",
      "outputs": [
        {
          "internalType": "address",
          "name": "proposer",
          "type": "address"
        },
        {
          "internalType": "address payable",
          "name": "recepient",
          "type": "address"
        },
        {
          "internalType": "uint256",
          "name": "amount",
          "type": "uint256"
        },
        {
          "internalType": "uint256",
          "name": "deadline",
          "type": "uint256"
        },
        {
          "internalType": "string",
          "name": "title",
          "type": "string"
        },
        {
          "internalType": "string",
          "name": "description",
          "type": "string"
        },
        {
          "internalType": "string",
          "name": "concernedDepartment",
          "type": "string"
        },
        {
          "internalType": "bool",
          "name": "isActive",
          "type": "bool"
        },
        {
          "internalType": "bool",
          "name": "isCompleted",
          "type": "bool"
        },
        {
          "internalType": "uint256",
          "name": "yesCount",
          "type": "uint256"
        },
        {
          "internalType": "uint256",
          "name": "noCount",
          "type": "uint256"
        },
        {
          "internalType": "uint256",
          "name": "totalVoters",
          "type": "uint256"
        }
      ],
      "stateMutability": "view",
      "type": "function"
    },
    {
      "inputs": [
        {
          "internalType": "address",
          "name": "voter",
          "type": "address"
        },
        {
          "internalType": "uint256",
          "name": "proposalId",
          "type": "uint256"
        },
        {
          "internalType": "bool",
          "name": "flag",
          "type": "bool"
        }
      ],
      "name": "voteProposal",
      "outputs": [],
      "stateMutability": "nonpayable",
      "type": "function"
    },
    {
      "stateMutability": "payable",
      "type": "receive"
    }
  ],
  "bytecode": "0x6080604052600060025560405162002dc038038062002dc083398181016040528101906200002e9190620000df565b806000806101000a81548173ffffffffffffffffffffffffffffffffffffffff021916908373ffffffffffffffffffffffffffffffffffffffff1602179055505062000111565b600080fd5b600073ffffffffffffffffffffffffffffffffffffffff82169050919050565b6000620000a7826200007a565b9050919050565b620000b9816200009a565b8114620000c557600080fd5b50565b600081519050620000d981620000ae565b92915050565b600060208284031215620000f857620000f762000075565b5b60006200010884828501620000c8565b91505092915050565b612c9f80620001216000396000f3fe60806040526004361061007f5760003560e01c8063742fdeeb1161004e578063742fdeeb14610159578063785ac476146101965780639b28348e146101c1578063e43192a6146101fe5761008f565b8063013cf08b1461009457806326c7eb1c146100dc57806345ac5955146101075780635652077c146101305761008f565b3661008f5761008d47610227565b005b600080fd5b3480156100a057600080fd5b506100bb60048036038101906100b691906119a5565b6102c0565b6040516100d39c9b9a99989796959493929190611aee565b60405180910390f35b3480156100e857600080fd5b506100f1610512565b6040516100fe9190611e2c565b60405180910390f35b34801561011357600080fd5b5061012e600480360381019061012991906119a5565b610876565b005b34801561013c57600080fd5b50610157600480360381019061015291906119a5565b610b32565b005b34801561016557600080fd5b50610180600480360381019061017b91906119a5565b610f63565b60405161018d9190611e4e565b60405180910390f35b3480156101a257600080fd5b506101ab610f83565b6040516101b89190611e4e565b60405180910390f35b3480156101cd57600080fd5b506101e860048036038101906101e39190611f26565b610f89565b6040516101f59190611e4e565b60405180910390f35b34801561020a57600080fd5b5061022560048036038101906102209190612055565b611225565b005b6102bd8160405160240161023b9190611e4e565b6040516020818303038152906040527ff82c50f1000000000000000000000000000000000000000000000000000000007bffffffffffffffffffffffffffffffffffffffffffffffffffffffff19166020820180517bffffffffffffffffffffffffffffffffffffffffffffffffffffffff8381831617835250505050611873565b50565b60016020528060005260406000206000915090508060000160009054906101000a900473ffffffffffffffffffffffffffffffffffffffff16908060010160009054906101000a900473ffffffffffffffffffffffffffffffffffffffff169080600201549080600301549080600401805461033b906120d7565b80601f0160208091040260200160405190810160405280929190818152602001828054610367906120d7565b80156103b45780601f10610389576101008083540402835291602001916103b4565b820191906000526020600020905b81548152906001019060200180831161039757829003601f168201915b5050505050908060050180546103c9906120d7565b80601f01602080910402602001604051908101604052809291908181526020018280546103f5906120d7565b80156104425780601f1061041757610100808354040283529160200191610442565b820191906000526020600020905b81548152906001019060200180831161042557829003601f168201915b505050505090806006018054610457906120d7565b80601f0160208091040260200160405190810160405280929190818152602001828054610483906120d7565b80156104d05780601f106104a5576101008083540402835291602001916104d0565b820191906000526020600020905b8154815290600101906020018083116104b357829003601f168201915b5050505050908060070160009054906101000a900460ff16908060070160019054906101000a900460ff169080600801549080600901549080600a015490508c565b6060600060025467ffffffffffffffff81111561053257610531612108565b5b60405190808252806020026020018201604052801561056b57816020015b6105586118b9565b8152602001906001900390816105505790505b50905060005b60025481101561086e576000600160008381526020019081526020016000209050604051806101a001604052808381526020018260000160009054906101000a900473ffffffffffffffffffffffffffffffffffffffff1673ffffffffffffffffffffffffffffffffffffffff1681526020018260010160009054906101000a900473ffffffffffffffffffffffffffffffffffffffff1673ffffffffffffffffffffffffffffffffffffffff1681526020018260020154815260200182600301548152602001826004018054610647906120d7565b80601f0160208091040260200160405190810160405280929190818152602001828054610673906120d7565b80156106c05780601f10610695576101008083540402835291602001916106c0565b820191906000526020600020905b8154815290600101906020018083116106a357829003601f168201915b505050505081526020018260050180546106d9906120d7565b80601f0160208091040260200160405190810160405280929190818152602001828054610705906120d7565b80156107525780601f1061072757610100808354040283529160200191610752565b820191906000526020600020905b81548152906001019060200180831161073557829003601f168201915b5050505050815260200182600601805461076b906120d7565b80601f0160208091040260200160405190810160405280929190818152602001828054610797906120d7565b80156107e45780601f106107b9576101008083540402835291602001916107e4565b820191906000526020600020905b8154815290600101906020018083116107c757829003601f168201915b505050505081526020018260070160009054906101000a900460ff16151581526020018260070160019054906101000a900460ff1615158152602001826008015481526020018260090154815260200182600a015481525083838151811061084f5761084e612137565b5b602002602001018190525050808061086690612195565b915050610571565b508091505090565b806002548110158061089d5750426001600083815260200190815260200160002060030154105b806108cf5750600115156001600083815260200190815260200160002060070160019054906101000a900460ff161515145b15610906576040517f0fd4263400000000000000000000000000000000000000000000000000000000815260040160405180910390fd5b60008060009054906101000a900473ffffffffffffffffffffffffffffffffffffffff1673ffffffffffffffffffffffffffffffffffffffff166370a08231336040518263ffffffff1660e01b815260040161096291906121dd565b602060405180830381865afa15801561097f573d6000803e3d6000fd5b505050506040513d601f19601f820116820180604052508101906109a3919061220d565b116109da576040517fbd8ee8d400000000000000000000000000000000000000000000000000000000815260040160405180910390fd5b60006001600084815260200190815260200160002090503373ffffffffffffffffffffffffffffffffffffffff168160000160009054906101000a900473ffffffffffffffffffffffffffffffffffffffff1673ffffffffffffffffffffffffffffffffffffffff1614610a83576040517f08c379a0000000000000000000000000000000000000000000000000000000008152600401610a7a906122ac565b60405180910390fd5b60006203f48042610a9491906122cc565b905060006202a30042610aa791906122cc565b90508083600301541080610abe5750818360030154115b610afd576040517f08c379a0000000000000000000000000000000000000000000000000000000008152600401610af490612372565b60405180910390fd5b600180600087815260200190815260200160002060070160006101000a81548160ff0219169083151502179055505050505050565b8060025481101580610b595750426001600083815260200190815260200160002060030154105b80610b8b5750600115156001600083815260200190815260200160002060070160019054906101000a900460ff161515145b15610bc2576040517f0fd4263400000000000000000000000000000000000000000000000000000000815260040160405180910390fd5b60008060009054906101000a900473ffffffffffffffffffffffffffffffffffffffff1673ffffffffffffffffffffffffffffffffffffffff166370a08231336040518263ffffffff1660e01b8152600401610c1e91906121dd565b602060405180830381865afa158015610c3b573d6000803e3d6000fd5b505050506040513d601f19601f82011682018060405250810190610c5f919061220d565b11610c96576040517fbd8ee8d400000000000000000000000000000000000000000000000000000000815260040160405180910390fd5b81600015156001600083815260200190815260200160002060070160009054906101000a900460ff16151503610cf8576040517fa290daef00000000000000000000000000000000000000000000000000000000815260040160405180910390fd5b8260016000828152602001908152602001600020600201544711610d48576040517fc265a00c00000000000000000000000000000000000000000000000000000000815260040160405180910390fd5b610d5147610227565b6001600085815260200190815260200160002060000160009054906101000a900473ffffffffffffffffffffffffffffffffffffffff1673ffffffffffffffffffffffffffffffffffffffff163373ffffffffffffffffffffffffffffffffffffffff1614610df5576040517f08c379a0000000000000000000000000000000000000000000000000000000008152600401610dec90612404565b60405180910390fd5b60006001600086815260200190815260200160002090508060090154816008015411610e56576040517f08c379a0000000000000000000000000000000000000000000000000000000008152600401610e4d90612496565b60405180910390fd5b60008160010160009054906101000a900473ffffffffffffffffffffffffffffffffffffffff1673ffffffffffffffffffffffffffffffffffffffff168260020154604051610ea49061250d565b60006040518083038185875af1925050503d8060008114610ee1576040519150601f19603f3d011682016040523d82523d6000602084013e610ee6565b606091505b5050905080610f21576040517f41caca2700000000000000000000000000000000000000000000000000000000815260040160405180910390fd5b60008260070160006101000a81548160ff02191690831515021790555060018260070160016101000a81548160ff021916908315150217905550505050505050565b600060016000838152602001908152602001600020600a01549050919050565b60025481565b6000806001600060025481526020019081526020016000209050428411610fe5576040517f08c379a0000000000000000000000000000000000000000000000000000000008152600401610fdc90612594565b60405180910390fd5b6001151560008054906101000a900473ffffffffffffffffffffffffffffffffffffffff1673ffffffffffffffffffffffffffffffffffffffff166386de914888886040518363ffffffff1660e01b81526004016110449291906125f0565b602060405180830381865afa158015611061573d6000803e3d6000fd5b505050506040513d601f19601f820116820180604052508101906110859190612629565b1515146110be576040517f3dc2dba200000000000000000000000000000000000000000000000000000000815260040160405180910390fd5b604051806020016040528060008152508051906020012086866040516110e592919061267b565b60405180910390200361111857604051806020016040528060008152508160060190816111129190612840565b5061112d565b858582600601918261112b92919061291d565b505b8b8160000160006101000a81548173ffffffffffffffffffffffffffffffffffffffff021916908373ffffffffffffffffffffffffffffffffffffffff1602179055508a8160020181905550838160030181905550898982600401918261119592919061291d565b5087878260050191826111a992919061291d565b50828160010160006101000a81548173ffffffffffffffffffffffffffffffffffffffff021916908373ffffffffffffffffffffffffffffffffffffffff1602179055506002600081548092919061120090612195565b9190505550600160025461121491906129ed565b9150509a9950505050505050505050565b60008060009054906101000a900473ffffffffffffffffffffffffffffffffffffffff1673ffffffffffffffffffffffffffffffffffffffff166370a08231336040518263ffffffff1660e01b815260040161128191906121dd565b602060405180830381865afa15801561129e573d6000803e3d6000fd5b505050506040513d601f19601f820116820180604052508101906112c2919061220d565b116112f9576040517fbd8ee8d400000000000000000000000000000000000000000000000000000000815260040160405180910390fd5b8260008060009054906101000a900473ffffffffffffffffffffffffffffffffffffffff1673ffffffffffffffffffffffffffffffffffffffff166370a08231836040518263ffffffff1660e01b815260040161135691906121dd565b602060405180830381865afa158015611373573d6000803e3d6000fd5b505050506040513d601f19601f82011682018060405250810190611397919061220d565b116113ce576040517fbd8ee8d400000000000000000000000000000000000000000000000000000000815260040160405180910390fd5b82600254811015806113f55750426001600083815260200190815260200160002060030154105b806114275750600115156001600083815260200190815260200160002060070160019054906101000a900460ff161515145b1561145e576040517f0fd4263400000000000000000000000000000000000000000000000000000000815260040160405180910390fd5b84846001151560016000838152602001908152602001600020600b0160008473ffffffffffffffffffffffffffffffffffffffff1673ffffffffffffffffffffffffffffffffffffffff16815260200190815260200160002060009054906101000a900460ff161515036114fe576040517f3631f26700000000000000000000000000000000000000000000000000000000815260040160405180910390fd5b85600015156001600083815260200190815260200160002060070160009054906101000a900460ff16151503611560576040517fa290daef00000000000000000000000000000000000000000000000000000000815260040160405180910390fd5b600060016000898152602001908152602001600020905080600a01600081548092919061158c90612195565b9190505550600060011515881515146115a65760016115a9565b60005b9050600182600b0160008c73ffffffffffffffffffffffffffffffffffffffff1673ffffffffffffffffffffffffffffffffffffffff16815260200190815260200160002060006101000a81548160ff0219169083151502179055506000600181111561161957611618612a21565b5b81600181111561162c5761162b612a21565b5b0361173857816006016040516116429190612ae8565b604051809103902060008054906101000a900473ffffffffffffffffffffffffffffffffffffffff1673ffffffffffffffffffffffffffffffffffffffff1663e364db188c6040518263ffffffff1660e01b81526004016116a391906121dd565b600060405180830381865afa1580156116c0573d6000803e3d6000fd5b505050506040513d6000823e3d601f19601f820116820180604052508101906116e99190612bf1565b805190602001200361171657600c82600801600082825461170a91906122cc565b92505081905550611733565b600a82600801600082825461172b91906122cc565b925050819055505b611867565b60018081111561174b5761174a612a21565b5b81600181111561175e5761175d612a21565b5b0361186657816006016040516117749190612ae8565b604051809103902060008054906101000a900473ffffffffffffffffffffffffffffffffffffffff1673ffffffffffffffffffffffffffffffffffffffff1663e364db188c6040518263ffffffff1660e01b81526004016117d591906121dd565b600060405180830381865afa1580156117f2573d6000803e3d6000fd5b505050506040513d6000823e3d601f19601f8201168201806040525081019061181b9190612bf1565b805190602001200361184857600c82600901600082825461183c91906122cc565b92505081905550611865565b600a82600901600082825461185d91906122cc565b925050819055505b5b5b50505050505050505050565b61188a8161188261188d6118ae565b63ffffffff16565b50565b60006a636f6e736f6c652e6c6f679050600080835160208501845afa505050565b611951819050919050565b604051806101a0016040528060008152602001600073ffffffffffffffffffffffffffffffffffffffff168152602001600073ffffffffffffffffffffffffffffffffffffffff16815260200160008152602001600081526020016060815260200160608152602001606081526020016000151581526020016000151581526020016000815260200160008152602001600081525090565b611959612c3a565b565b6000604051905090565b600080fd5b600080fd5b6000819050919050565b6119828161196f565b811461198d57600080fd5b50565b60008135905061199f81611979565b92915050565b6000602082840312156119bb576119ba611965565b5b60006119c984828501611990565b91505092915050565b600073ffffffffffffffffffffffffffffffffffffffff82169050919050565b60006119fd826119d2565b9050919050565b611a0d816119f2565b82525050565b6000611a1e826119d2565b9050919050565b611a2e81611a13565b82525050565b611a3d8161196f565b82525050565b600081519050919050565b600082825260208201905092915050565b60005b83811015611a7d578082015181840152602081019050611a62565b60008484015250505050565b6000601f19601f8301169050919050565b6000611aa582611a43565b611aaf8185611a4e565b9350611abf818560208601611a5f565b611ac881611a89565b840191505092915050565b60008115159050919050565b611ae881611ad3565b82525050565b600061018082019050611b04600083018f611a04565b611b11602083018e611a25565b611b1e604083018d611a34565b611b2b606083018c611a34565b8181036080830152611b3d818b611a9a565b905081810360a0830152611b51818a611a9a565b905081810360c0830152611b658189611a9a565b9050611b7460e0830188611adf565b611b82610100830187611adf565b611b90610120830186611a34565b611b9e610140830185611a34565b611bac610160830184611a34565b9d9c50505050505050505050505050565b600081519050919050565b600082825260208201905092915050565b6000819050602082019050919050565b611bf28161196f565b82525050565b611c01816119f2565b82525050565b611c1081611a13565b82525050565b600082825260208201905092915050565b6000611c3282611a43565b611c3c8185611c16565b9350611c4c818560208601611a5f565b611c5581611a89565b840191505092915050565b611c6981611ad3565b82525050565b60006101a083016000830151611c886000860182611be9565b506020830151611c9b6020860182611bf8565b506040830151611cae6040860182611c07565b506060830151611cc16060860182611be9565b506080830151611cd46080860182611be9565b5060a083015184820360a0860152611cec8282611c27565b91505060c083015184820360c0860152611d068282611c27565b91505060e083015184820360e0860152611d208282611c27565b915050610100830151611d37610100860182611c60565b50610120830151611d4c610120860182611c60565b50610140830151611d61610140860182611be9565b50610160830151611d76610160860182611be9565b50610180830151611d8b610180860182611be9565b508091505092915050565b6000611da28383611c6f565b905092915050565b6000602082019050919050565b6000611dc282611bbd565b611dcc8185611bc8565b935083602082028501611dde85611bd9565b8060005b85811015611e1a5784840389528151611dfb8582611d96565b9450611e0683611daa565b925060208a01995050600181019050611de2565b50829750879550505050505092915050565b60006020820190508181036000830152611e468184611db7565b905092915050565b6000602082019050611e636000830184611a34565b92915050565b611e72816119f2565b8114611e7d57600080fd5b50565b600081359050611e8f81611e69565b92915050565b600080fd5b600080fd5b600080fd5b60008083601f840112611eba57611eb9611e95565b5b8235905067ffffffffffffffff811115611ed757611ed6611e9a565b5b602083019150836001820283011115611ef357611ef2611e9f565b5b9250929050565b611f0381611a13565b8114611f0e57600080fd5b50565b600081359050611f2081611efa565b92915050565b60008060008060008060008060008060e08b8d031215611f4957611f48611965565b5b6000611f578d828e01611e80565b9a50506020611f688d828e01611990565b99505060408b013567ffffffffffffffff811115611f8957611f8861196a565b5b611f958d828e01611ea4565b985098505060608b013567ffffffffffffffff811115611fb857611fb761196a565b5b611fc48d828e01611ea4565b965096505060808b013567ffffffffffffffff811115611fe757611fe661196a565b5b611ff38d828e01611ea4565b945094505060a06120068d828e01611990565b92505060c06120178d828e01611f11565b9150509295989b9194979a5092959850565b61203281611ad3565b811461203d57600080fd5b50565b60008135905061204f81612029565b92915050565b60008060006060848603121561206e5761206d611965565b5b600061207c86828701611e80565b935050602061208d86828701611990565b925050604061209e86828701612040565b9150509250925092565b7f4e487b7100000000000000000000000000000000000000000000000000000000600052602260045260246000fd5b600060028204905060018216806120ef57607f821691505b602082108103612102576121016120a8565b5b50919050565b7f4e487b7100000000000000000000000000000000000000000000000000000000600052604160045260246000fd5b7f4e487b7100000000000000000000000000000000000000000000000000000000600052603260045260246000fd5b7f4e487b7100000000000000000000000000000000000000000000000000000000600052601160045260246000fd5b60006121a08261196f565b91507fffffffffffffffffffffffffffffffffffffffffffffffffffffffffffffffff82036121d2576121d1612166565b5b600182019050919050565b60006020820190506121f26000830184611a04565b92915050565b60008151905061220781611979565b92915050565b60006020828403121561222357612222611965565b5b6000612231848285016121f8565b91505092915050565b7f4f6e6c79207468652070726f706f7365722063616e206163746976617465207460008201527f68652070726f706f73616c000000000000000000000000000000000000000000602082015250565b6000612296602b83611a4e565b91506122a18261223a565b604082019050919050565b600060208201905081810360008301526122c581612289565b9050919050565b60006122d78261196f565b91506122e28361196f565b92508282019050808211156122fa576122f9612166565b5b92915050565b7f50726f706f73616c206e6f7420696e2061637469766174696f6e20706572696f60008201527f6400000000000000000000000000000000000000000000000000000000000000602082015250565b600061235c602183611a4e565b915061236782612300565b604082019050919050565b6000602082019050818103600083015261238b8161234f565b9050919050565b7f4f6e6c792070726f706f7365722063616e2066696c616c697a6520746865207060008201527f726f706f73616c00000000000000000000000000000000000000000000000000602082015250565b60006123ee602783611a4e565b91506123f982612392565b604082019050919050565b6000602082019050818103600083015261241d816123e1565b9050919050565b7f4e6f7420656e6f756768206d656d62657273206163636570746564207468652060008201527f70726f706f73616c000000000000000000000000000000000000000000000000602082015250565b6000612480602883611a4e565b915061248b82612424565b604082019050919050565b600060208201905081810360008301526124af81612473565b9050919050565b600081905092915050565b7f6e6f000000000000000000000000000000000000000000000000000000000000600082015250565b60006124f76002836124b6565b9150612502826124c1565b600282019050919050565b6000612518826124ea565b9150819050919050565b7f54686520646561646c696e652073686f756c6420626520696e2074686520667560008201527f7475726500000000000000000000000000000000000000000000000000000000602082015250565b600061257e602483611a4e565b915061258982612522565b604082019050919050565b600060208201905081810360008301526125ad81612571565b9050919050565b82818337600083830152505050565b60006125cf8385611a4e565b93506125dc8385846125b4565b6125e583611a89565b840190509392505050565b6000602082019050818103600083015261260b8184866125c3565b90509392505050565b60008151905061262381612029565b92915050565b60006020828403121561263f5761263e611965565b5b600061264d84828501612614565b91505092915050565b600061266283856124b6565b935061266f8385846125b4565b82840190509392505050565b6000612688828486612656565b91508190509392505050565b60008190508160005260206000209050919050565b60006020601f8301049050919050565b600082821b905092915050565b6000600883026126f67fffffffffffffffffffffffffffffffffffffffffffffffffffffffffffffffff826126b9565b61270086836126b9565b95508019841693508086168417925050509392505050565b6000819050919050565b600061273d6127386127338461196f565b612718565b61196f565b9050919050565b6000819050919050565b61275783612722565b61276b61276382612744565b8484546126c6565b825550505050565b600090565b612780612773565b61278b81848461274e565b505050565b5b818110156127af576127a4600082612778565b600181019050612791565b5050565b601f8211156127f4576127c581612694565b6127ce846126a9565b810160208510156127dd578190505b6127f16127e9856126a9565b830182612790565b50505b505050565b600082821c905092915050565b6000612817600019846008026127f9565b1980831691505092915050565b60006128308383612806565b9150826002028217905092915050565b61284982611a43565b67ffffffffffffffff81111561286257612861612108565b5b61286c82546120d7565b6128778282856127b3565b600060209050601f8311600181146128aa5760008415612898578287015190505b6128a28582612824565b86555061290a565b601f1984166128b886612694565b60005b828110156128e0578489015182556001820191506020850194506020810190506128bb565b868310156128fd57848901516128f9601f891682612806565b8355505b6001600288020188555050505b505050505050565b600082905092915050565b6129278383612912565b67ffffffffffffffff8111156129405761293f612108565b5b61294a82546120d7565b6129558282856127b3565b6000601f8311600181146129845760008415612972578287013590505b61297c8582612824565b8655506129e4565b601f19841661299286612694565b60005b828110156129ba57848901358255600182019150602085019450602081019050612995565b868310156129d757848901356129d3601f891682612806565b8355505b6001600288020188555050505b50505050505050565b60006129f88261196f565b9150612a038361196f565b9250828203905081811115612a1b57612a1a612166565b5b92915050565b7f4e487b7100000000000000000000000000000000000000000000000000000000600052602160045260246000fd5b60008190508160005260206000209050919050565b60008154612a72816120d7565b612a7c81866124b6565b94506001821660008114612a975760018114612aac57612adf565b60ff1983168652811515820286019350612adf565b612ab585612a50565b60005b83811015612ad757815481890152600182019150602081019050612ab8565b838801955050505b50505092915050565b6000612af48284612a65565b915081905092915050565b600080fd5b612b0d82611a89565b810181811067ffffffffffffffff82111715612b2c57612b2b612108565b5b80604052505050565b6000612b3f61195b565b9050612b4b8282612b04565b919050565b600067ffffffffffffffff821115612b6b57612b6a612108565b5b612b7482611a89565b9050602081019050919050565b6000612b94612b8f84612b50565b612b35565b905082815260208101848484011115612bb057612baf612aff565b5b612bbb848285611a5f565b509392505050565b600082601f830112612bd857612bd7611e95565b5b8151612be8848260208601612b81565b91505092915050565b600060208284031215612c0757612c06611965565b5b600082015167ffffffffffffffff811115612c2557612c2461196a565b5b612c3184828501612bc3565b91505092915050565b7f4e487b7100000000000000000000000000000000000000000000000000000000600052605160045260246000fdfea2646970667358221220e3b4d260932e1cd4f671bf6bd003495c21321ff334227e8fff222ba56b058f2064736f6c63430008140033",
  "linkReferences": {},
  "deployedLinkReferences": {}
}