{
  "_format": "hh-sol-artifact-1",
  "contractName": "FundAllocation",
  "sourceName": "contracts/FundAllocation.sol",
  "abi": [
    {
      "inputs": [
        {
          "internalType": "address",
          "name": "member",
          "type": "address"
        }
      ],
      "stateMutability": "payable",
      "type": "constructor"
    },
    {
      "inputs": [],
      "name": "FundAllocation_AlreadyVoted",
      "type": "error"
    },
    {
      "inputs": [],
      "name": "FundAllocation_InactiveProposal",
      "type": "error"
    },
    {
      "inputs": [],
      "name": "FundAllocation_InsufficientFunds",
      "type": "error"
    },
    {
      "inputs": [],
      "name": "FundAllocation_InvalidProposal",
      "type": "error"
    },
    {
      "inputs": [],
      "name": "FundAllocation_NoSuchDepartment",
      "type": "error"
    },
    {
      "inputs": [],
      "name": "FundAllocation_NotAMember",
      "type": "error"
    },
    {
      "inputs": [],
      "name": "FundAllocation_TransactionFailed",
      "type": "error"
    },
    {
      "inputs": [
        {
          "internalType": "uint256",
          "name": "proposalId",
          "type": "uint256"
        }
      ],
      "name": "activateProposal",
      "outputs": [],
      "stateMutability": "nonpayable",
      "type": "function"
    },
    {
      "inputs": [
        {
          "internalType": "address",
          "name": "_proposer",
          "type": "address"
        },
        {
          "internalType": "uint256",
          "name": "_amount",
          "type": "uint256"
        },
        {
          "internalType": "string",
          "name": "_title",
          "type": "string"
        },
        {
          "internalType": "string",
          "name": "_description",
          "type": "string"
        },
        {
          "internalType": "string",
          "name": "_department",
          "type": "string"
        },
        {
          "internalType": "uint256",
          "name": "_deadline",
          "type": "uint256"
        },
        {
          "internalType": "address payable",
          "name": "_recepient",
          "type": "address"
        }
      ],
      "name": "createProposal",
      "outputs": [
        {
          "internalType": "uint256",
          "name": "",
          "type": "uint256"
        }
      ],
      "stateMutability": "nonpayable",
      "type": "function"
    },
    {
      "inputs": [
        {
          "internalType": "uint256",
          "name": "proposalId",
          "type": "uint256"
        }
      ],
      "name": "finalizeProposal",
      "outputs": [],
      "stateMutability": "nonpayable",
      "type": "function"
    },
    {
      "inputs": [],
      "name": "listProposals",
      "outputs": [
        {
          "components": [
            {
              "internalType": "uint256",
              "name": "id",
              "type": "uint256"
            },
            {
              "internalType": "address",
              "name": "proposer",
              "type": "address"
            },
            {
              "internalType": "address payable",
              "name": "recepient",
              "type": "address"
            },
            {
              "internalType": "uint256",
              "name": "amount",
              "type": "uint256"
            },
            {
              "internalType": "uint256",
              "name": "deadline",
              "type": "uint256"
            },
            {
              "internalType": "string",
              "name": "title",
              "type": "string"
            },
            {
              "internalType": "string",
              "name": "description",
              "type": "string"
            },
            {
              "internalType": "string",
              "name": "concernedDepartment",
              "type": "string"
            },
            {
              "internalType": "bool",
              "name": "isActive",
              "type": "bool"
            },
            {
              "internalType": "bool",
              "name": "isCompleted",
              "type": "bool"
            },
            {
              "internalType": "uint256",
              "name": "yesCount",
              "type": "uint256"
            },
            {
              "internalType": "uint256",
              "name": "noCount",
              "type": "uint256"
            },
            {
              "internalType": "uint256",
              "name": "totalVoters",
              "type": "uint256"
            }
          ],
          "internalType": "struct FundAllocation.ProposalExternalList[]",
          "name": "",
          "type": "tuple[]"
        }
      ],
      "stateMutability": "view",
      "type": "function"
    },
    {
      "inputs": [],
      "name": "n_proposals",
      "outputs": [
        {
          "internalType": "uint256",
          "name": "",
          "type": "uint256"
        }
      ],
      "stateMutability": "view",
      "type": "function"
    },
    {
      "inputs": [
        {
          "internalType": "uint256",
          "name": "proposalId",
          "type": "uint256"
        }
      ],
      "name": "numberOfVoters",
      "outputs": [
        {
          "internalType": "uint256",
          "name": "",
          "type": "uint256"
        }
      ],
      "stateMutability": "view",
      "type": "function"
    },
    {
      "inputs": [
        {
          "internalType": "uint256",
          "name": "",
          "type": "uint256"
        }
      ],
      "name": "proposals",
      "outputs": [
        {
          "internalType": "address",
          "name": "proposer",
          "type": "address"
        },
        {
          "internalType": "address payable",
          "name": "recepient",
          "type": "address"
        },
        {
          "internalType": "uint256",
          "name": "amount",
          "type": "uint256"
        },
        {
          "internalType": "uint256",
          "name": "deadline",
          "type": "uint256"
        },
        {
          "internalType": "string",
          "name": "title",
          "type": "string"
        },
        {
          "internalType": "string",
          "name": "description",
          "type": "string"
        },
        {
          "internalType": "string",
          "name": "concernedDepartment",
          "type": "string"
        },
        {
          "internalType": "bool",
          "name": "isActive",
          "type": "bool"
        },
        {
          "internalType": "bool",
          "name": "isCompleted",
          "type": "bool"
        },
        {
          "internalType": "uint256",
          "name": "yesCount",
          "type": "uint256"
        },
        {
          "internalType": "uint256",
          "name": "noCount",
          "type": "uint256"
        },
        {
          "internalType": "uint256",
          "name": "totalVoters",
          "type": "uint256"
        }
      ],
      "stateMutability": "view",
      "type": "function"
    },
    {
      "inputs": [
        {
          "internalType": "address",
          "name": "voter",
          "type": "address"
        },
        {
          "internalType": "uint256",
          "name": "proposalId",
          "type": "uint256"
        },
        {
          "internalType": "bool",
          "name": "flag",
          "type": "bool"
        }
      ],
      "name": "voteProposal",
      "outputs": [],
      "stateMutability": "nonpayable",
      "type": "function"
    },
    {
      "stateMutability": "payable",
      "type": "receive"
    }
  ],
  "bytecode": "0x6080604052600060025560405162002f1038038062002f1083398181016040528101906200002e9190620000df565b806000806101000a81548173ffffffffffffffffffffffffffffffffffffffff021916908373ffffffffffffffffffffffffffffffffffffffff1602179055505062000111565b600080fd5b600073ffffffffffffffffffffffffffffffffffffffff82169050919050565b6000620000a7826200007a565b9050919050565b620000b9816200009a565b8114620000c557600080fd5b50565b600081519050620000d981620000ae565b92915050565b600060208284031215620000f857620000f762000075565b5b60006200010884828501620000c8565b91505092915050565b612def80620001216000396000f3fe60806040526004361061007f5760003560e01c8063742fdeeb1161004e578063742fdeeb14610159578063785ac476146101965780639b28348e146101c1578063e43192a6146101fe5761008f565b8063013cf08b1461009457806326c7eb1c146100dc57806345ac5955146101075780635652077c146101305761008f565b3661008f5761008d47610227565b005b600080fd5b3480156100a057600080fd5b506100bb60048036038101906100b69190611ad3565b6102c0565b6040516100d39c9b9a99989796959493929190611c1c565b60405180910390f35b3480156100e857600080fd5b506100f1610512565b6040516100fe9190611f5a565b60405180910390f35b34801561011357600080fd5b5061012e60048036038101906101299190611ad3565b61090b565b005b34801561013c57600080fd5b5061015760048036038101906101529190611ad3565b610bc7565b005b34801561016557600080fd5b50610180600480360381019061017b9190611ad3565b610ff8565b60405161018d9190611f7c565b60405180910390f35b3480156101a257600080fd5b506101ab611018565b6040516101b89190611f7c565b60405180910390f35b3480156101cd57600080fd5b506101e860048036038101906101e39190612054565b61101e565b6040516101f59190611f7c565b60405180910390f35b34801561020a57600080fd5b5061022560048036038101906102209190612183565b6112ba565b005b6102bd8160405160240161023b9190611f7c565b6040516020818303038152906040527ff82c50f1000000000000000000000000000000000000000000000000000000007bffffffffffffffffffffffffffffffffffffffffffffffffffffffff19166020820180517bffffffffffffffffffffffffffffffffffffffffffffffffffffffff8381831617835250505050611908565b50565b60016020528060005260406000206000915090508060000160009054906101000a900473ffffffffffffffffffffffffffffffffffffffff16908060010160009054906101000a900473ffffffffffffffffffffffffffffffffffffffff169080600201549080600301549080600401805461033b90612205565b80601f016020809104026020016040519081016040528092919081815260200182805461036790612205565b80156103b45780601f10610389576101008083540402835291602001916103b4565b820191906000526020600020905b81548152906001019060200180831161039757829003601f168201915b5050505050908060050180546103c990612205565b80601f01602080910402602001604051908101604052809291908181526020018280546103f590612205565b80156104425780601f1061041757610100808354040283529160200191610442565b820191906000526020600020905b81548152906001019060200180831161042557829003601f168201915b50505050509080600601805461045790612205565b80601f016020809104026020016040519081016040528092919081815260200182805461048390612205565b80156104d05780601f106104a5576101008083540402835291602001916104d0565b820191906000526020600020905b8154815290600101906020018083116104b357829003601f168201915b5050505050908060070160009054906101000a900460ff16908060070160019054906101000a900460ff169080600801549080600901549080600a015490508c565b6060600060025467ffffffffffffffff81111561053257610531612236565b5b60405190808252806020026020018201604052801561056b57816020015b6105586119e7565b8152602001906001900390816105505790505b50905060005b6002548110156109035760006001600083815260200190815260200160002090506106278160040180546105a490612205565b80601f01602080910402602001604051908101604052809291908181526020018280546105d090612205565b801561061d5780601f106105f25761010080835404028352916020019161061d565b820191906000526020600020905b81548152906001019060200180831161060057829003601f168201915b5050505050611922565b604051806101a001604052808381526020018260000160009054906101000a900473ffffffffffffffffffffffffffffffffffffffff1673ffffffffffffffffffffffffffffffffffffffff1681526020018260010160009054906101000a900473ffffffffffffffffffffffffffffffffffffffff1673ffffffffffffffffffffffffffffffffffffffff16815260200182600201548152602001826003015481526020018260040180546106dc90612205565b80601f016020809104026020016040519081016040528092919081815260200182805461070890612205565b80156107555780601f1061072a57610100808354040283529160200191610755565b820191906000526020600020905b81548152906001019060200180831161073857829003601f168201915b5050505050815260200182600501805461076e90612205565b80601f016020809104026020016040519081016040528092919081815260200182805461079a90612205565b80156107e75780601f106107bc576101008083540402835291602001916107e7565b820191906000526020600020905b8154815290600101906020018083116107ca57829003601f168201915b5050505050815260200182600601805461080090612205565b80601f016020809104026020016040519081016040528092919081815260200182805461082c90612205565b80156108795780601f1061084e57610100808354040283529160200191610879565b820191906000526020600020905b81548152906001019060200180831161085c57829003601f168201915b505050505081526020018260070160009054906101000a900460ff16151581526020018260070160019054906101000a900460ff1615158152602001826008015481526020018260090154815260200182600a01548152508383815181106108e4576108e3612265565b5b60200260200101819052505080806108fb906122c3565b915050610571565b508091505090565b80600254811015806109325750426001600083815260200190815260200160002060030154105b806109645750600115156001600083815260200190815260200160002060070160019054906101000a900460ff161515145b1561099b576040517f0fd4263400000000000000000000000000000000000000000000000000000000815260040160405180910390fd5b60008060009054906101000a900473ffffffffffffffffffffffffffffffffffffffff1673ffffffffffffffffffffffffffffffffffffffff166370a08231336040518263ffffffff1660e01b81526004016109f7919061230b565b602060405180830381865afa158015610a14573d6000803e3d6000fd5b505050506040513d601f19601f82011682018060405250810190610a38919061233b565b11610a6f576040517fbd8ee8d400000000000000000000000000000000000000000000000000000000815260040160405180910390fd5b60006001600084815260200190815260200160002090503373ffffffffffffffffffffffffffffffffffffffff168160000160009054906101000a900473ffffffffffffffffffffffffffffffffffffffff1673ffffffffffffffffffffffffffffffffffffffff1614610b18576040517f08c379a0000000000000000000000000000000000000000000000000000000008152600401610b0f906123da565b60405180910390fd5b60006203f48042610b2991906123fa565b905060006202a30042610b3c91906123fa565b90508083600301541080610b535750818360030154115b610b92576040517f08c379a0000000000000000000000000000000000000000000000000000000008152600401610b89906124a0565b60405180910390fd5b600180600087815260200190815260200160002060070160006101000a81548160ff0219169083151502179055505050505050565b8060025481101580610bee5750426001600083815260200190815260200160002060030154105b80610c205750600115156001600083815260200190815260200160002060070160019054906101000a900460ff161515145b15610c57576040517f0fd4263400000000000000000000000000000000000000000000000000000000815260040160405180910390fd5b60008060009054906101000a900473ffffffffffffffffffffffffffffffffffffffff1673ffffffffffffffffffffffffffffffffffffffff166370a08231336040518263ffffffff1660e01b8152600401610cb3919061230b565b602060405180830381865afa158015610cd0573d6000803e3d6000fd5b505050506040513d601f19601f82011682018060405250810190610cf4919061233b565b11610d2b576040517fbd8ee8d400000000000000000000000000000000000000000000000000000000815260040160405180910390fd5b81600015156001600083815260200190815260200160002060070160009054906101000a900460ff16151503610d8d576040517fa290daef00000000000000000000000000000000000000000000000000000000815260040160405180910390fd5b8260016000828152602001908152602001600020600201544711610ddd576040517fc265a00c00000000000000000000000000000000000000000000000000000000815260040160405180910390fd5b610de647610227565b6001600085815260200190815260200160002060000160009054906101000a900473ffffffffffffffffffffffffffffffffffffffff1673ffffffffffffffffffffffffffffffffffffffff163373ffffffffffffffffffffffffffffffffffffffff1614610e8a576040517f08c379a0000000000000000000000000000000000000000000000000000000008152600401610e8190612532565b60405180910390fd5b60006001600086815260200190815260200160002090508060090154816008015411610eeb576040517f08c379a0000000000000000000000000000000000000000000000000000000008152600401610ee2906125c4565b60405180910390fd5b60008160010160009054906101000a900473ffffffffffffffffffffffffffffffffffffffff1673ffffffffffffffffffffffffffffffffffffffff168260020154604051610f399061263b565b60006040518083038185875af1925050503d8060008114610f76576040519150601f19603f3d011682016040523d82523d6000602084013e610f7b565b606091505b5050905080610fb6576040517f41caca2700000000000000000000000000000000000000000000000000000000815260040160405180910390fd5b60008260070160006101000a81548160ff02191690831515021790555060018260070160016101000a81548160ff021916908315150217905550505050505050565b600060016000838152602001908152602001600020600a01549050919050565b60025481565b600080600160006002548152602001908152602001600020905042841161107a576040517f08c379a0000000000000000000000000000000000000000000000000000000008152600401611071906126c2565b60405180910390fd5b6001151560008054906101000a900473ffffffffffffffffffffffffffffffffffffffff1673ffffffffffffffffffffffffffffffffffffffff166386de914888886040518363ffffffff1660e01b81526004016110d992919061271e565b602060405180830381865afa1580156110f6573d6000803e3d6000fd5b505050506040513d601f19601f8201168201806040525081019061111a9190612757565b151514611153576040517f3dc2dba200000000000000000000000000000000000000000000000000000000815260040160405180910390fd5b6040518060200160405280600081525080519060200120868660405161117a9291906127a9565b6040518091039020036111ad57604051806020016040528060008152508160060190816111a7919061296e565b506111c2565b85858260060191826111c0929190612a4b565b505b8b8160000160006101000a81548173ffffffffffffffffffffffffffffffffffffffff021916908373ffffffffffffffffffffffffffffffffffffffff1602179055508a8160020181905550838160030181905550898982600401918261122a929190612a4b565b50878782600501918261123e929190612a4b565b50828160010160006101000a81548173ffffffffffffffffffffffffffffffffffffffff021916908373ffffffffffffffffffffffffffffffffffffffff16021790555060026000815480929190611295906122c3565b919050555060016002546112a99190612b1b565b9150509a9950505050505050505050565b60008060009054906101000a900473ffffffffffffffffffffffffffffffffffffffff1673ffffffffffffffffffffffffffffffffffffffff166370a08231336040518263ffffffff1660e01b8152600401611316919061230b565b602060405180830381865afa158015611333573d6000803e3d6000fd5b505050506040513d601f19601f82011682018060405250810190611357919061233b565b1161138e576040517fbd8ee8d400000000000000000000000000000000000000000000000000000000815260040160405180910390fd5b8260008060009054906101000a900473ffffffffffffffffffffffffffffffffffffffff1673ffffffffffffffffffffffffffffffffffffffff166370a08231836040518263ffffffff1660e01b81526004016113eb919061230b565b602060405180830381865afa158015611408573d6000803e3d6000fd5b505050506040513d601f19601f8201168201806040525081019061142c919061233b565b11611463576040517fbd8ee8d400000000000000000000000000000000000000000000000000000000815260040160405180910390fd5b826002548110158061148a5750426001600083815260200190815260200160002060030154105b806114bc5750600115156001600083815260200190815260200160002060070160019054906101000a900460ff161515145b156114f3576040517f0fd4263400000000000000000000000000000000000000000000000000000000815260040160405180910390fd5b84846001151560016000838152602001908152602001600020600b0160008473ffffffffffffffffffffffffffffffffffffffff1673ffffffffffffffffffffffffffffffffffffffff16815260200190815260200160002060009054906101000a900460ff16151503611593576040517f3631f26700000000000000000000000000000000000000000000000000000000815260040160405180910390fd5b85600015156001600083815260200190815260200160002060070160009054906101000a900460ff161515036115f5576040517fa290daef00000000000000000000000000000000000000000000000000000000815260040160405180910390fd5b600060016000898152602001908152602001600020905080600a016000815480929190611621906122c3565b91905055506000600115158815151461163b57600161163e565b60005b9050600182600b0160008c73ffffffffffffffffffffffffffffffffffffffff1673ffffffffffffffffffffffffffffffffffffffff16815260200190815260200160002060006101000a81548160ff021916908315150217905550600060018111156116ae576116ad612b4f565b5b8160018111156116c1576116c0612b4f565b5b036117cd57816006016040516116d79190612c16565b604051809103902060008054906101000a900473ffffffffffffffffffffffffffffffffffffffff1673ffffffffffffffffffffffffffffffffffffffff1663ae3e66e58c6040518263ffffffff1660e01b8152600401611738919061230b565b600060405180830381865afa158015611755573d6000803e3d6000fd5b505050506040513d6000823e3d601f19601f8201168201806040525081019061177e9190612d1f565b80519060200120036117ab57600c82600801600082825461179f91906123fa565b925050819055506117c8565b600a8260080160008282546117c091906123fa565b925050819055505b6118fc565b6001808111156117e0576117df612b4f565b5b8160018111156117f3576117f2612b4f565b5b036118fb57816006016040516118099190612c16565b604051809103902060008054906101000a900473ffffffffffffffffffffffffffffffffffffffff1673ffffffffffffffffffffffffffffffffffffffff1663ae3e66e58c6040518263ffffffff1660e01b815260040161186a919061230b565b600060405180830381865afa158015611887573d6000803e3d6000fd5b505050506040513d6000823e3d601f19601f820116820180604052508101906118b09190612d1f565b80519060200120036118dd57600c8260090160008282546118d191906123fa565b925050819055506118fa565b600a8260090160008282546118f291906123fa565b925050819055505b5b5b50505050505050505050565b61191f816119176119bb6119dc565b63ffffffff16565b50565b6119b8816040516024016119369190612d68565b6040516020818303038152906040527f41304fac000000000000000000000000000000000000000000000000000000007bffffffffffffffffffffffffffffffffffffffffffffffffffffffff19166020820180517bffffffffffffffffffffffffffffffffffffffffffffffffffffffff8381831617835250505050611908565b50565b60006a636f6e736f6c652e6c6f679050600080835160208501845afa505050565b611a7f819050919050565b604051806101a0016040528060008152602001600073ffffffffffffffffffffffffffffffffffffffff168152602001600073ffffffffffffffffffffffffffffffffffffffff16815260200160008152602001600081526020016060815260200160608152602001606081526020016000151581526020016000151581526020016000815260200160008152602001600081525090565b611a87612d8a565b565b6000604051905090565b600080fd5b600080fd5b6000819050919050565b611ab081611a9d565b8114611abb57600080fd5b50565b600081359050611acd81611aa7565b92915050565b600060208284031215611ae957611ae8611a93565b5b6000611af784828501611abe565b91505092915050565b600073ffffffffffffffffffffffffffffffffffffffff82169050919050565b6000611b2b82611b00565b9050919050565b611b3b81611b20565b82525050565b6000611b4c82611b00565b9050919050565b611b5c81611b41565b82525050565b611b6b81611a9d565b82525050565b600081519050919050565b600082825260208201905092915050565b60005b83811015611bab578082015181840152602081019050611b90565b60008484015250505050565b6000601f19601f8301169050919050565b6000611bd382611b71565b611bdd8185611b7c565b9350611bed818560208601611b8d565b611bf681611bb7565b840191505092915050565b60008115159050919050565b611c1681611c01565b82525050565b600061018082019050611c32600083018f611b32565b611c3f602083018e611b53565b611c4c604083018d611b62565b611c59606083018c611b62565b8181036080830152611c6b818b611bc8565b905081810360a0830152611c7f818a611bc8565b905081810360c0830152611c938189611bc8565b9050611ca260e0830188611c0d565b611cb0610100830187611c0d565b611cbe610120830186611b62565b611ccc610140830185611b62565b611cda610160830184611b62565b9d9c50505050505050505050505050565b600081519050919050565b600082825260208201905092915050565b6000819050602082019050919050565b611d2081611a9d565b82525050565b611d2f81611b20565b82525050565b611d3e81611b41565b82525050565b600082825260208201905092915050565b6000611d6082611b71565b611d6a8185611d44565b9350611d7a818560208601611b8d565b611d8381611bb7565b840191505092915050565b611d9781611c01565b82525050565b60006101a083016000830151611db66000860182611d17565b506020830151611dc96020860182611d26565b506040830151611ddc6040860182611d35565b506060830151611def6060860182611d17565b506080830151611e026080860182611d17565b5060a083015184820360a0860152611e1a8282611d55565b91505060c083015184820360c0860152611e348282611d55565b91505060e083015184820360e0860152611e4e8282611d55565b915050610100830151611e65610100860182611d8e565b50610120830151611e7a610120860182611d8e565b50610140830151611e8f610140860182611d17565b50610160830151611ea4610160860182611d17565b50610180830151611eb9610180860182611d17565b508091505092915050565b6000611ed08383611d9d565b905092915050565b6000602082019050919050565b6000611ef082611ceb565b611efa8185611cf6565b935083602082028501611f0c85611d07565b8060005b85811015611f485784840389528151611f298582611ec4565b9450611f3483611ed8565b925060208a01995050600181019050611f10565b50829750879550505050505092915050565b60006020820190508181036000830152611f748184611ee5565b905092915050565b6000602082019050611f916000830184611b62565b92915050565b611fa081611b20565b8114611fab57600080fd5b50565b600081359050611fbd81611f97565b92915050565b600080fd5b600080fd5b600080fd5b60008083601f840112611fe857611fe7611fc3565b5b8235905067ffffffffffffffff81111561200557612004611fc8565b5b60208301915083600182028301111561202157612020611fcd565b5b9250929050565b61203181611b41565b811461203c57600080fd5b50565b60008135905061204e81612028565b92915050565b60008060008060008060008060008060e08b8d03121561207757612076611a93565b5b60006120858d828e01611fae565b9a505060206120968d828e01611abe565b99505060408b013567ffffffffffffffff8111156120b7576120b6611a98565b5b6120c38d828e01611fd2565b985098505060608b013567ffffffffffffffff8111156120e6576120e5611a98565b5b6120f28d828e01611fd2565b965096505060808b013567ffffffffffffffff81111561211557612114611a98565b5b6121218d828e01611fd2565b945094505060a06121348d828e01611abe565b92505060c06121458d828e0161203f565b9150509295989b9194979a5092959850565b61216081611c01565b811461216b57600080fd5b50565b60008135905061217d81612157565b92915050565b60008060006060848603121561219c5761219b611a93565b5b60006121aa86828701611fae565b93505060206121bb86828701611abe565b92505060406121cc8682870161216e565b9150509250925092565b7f4e487b7100000000000000000000000000000000000000000000000000000000600052602260045260246000fd5b6000600282049050600182168061221d57607f821691505b6020821081036122305761222f6121d6565b5b50919050565b7f4e487b7100000000000000000000000000000000000000000000000000000000600052604160045260246000fd5b7f4e487b7100000000000000000000000000000000000000000000000000000000600052603260045260246000fd5b7f4e487b7100000000000000000000000000000000000000000000000000000000600052601160045260246000fd5b60006122ce82611a9d565b91507fffffffffffffffffffffffffffffffffffffffffffffffffffffffffffffffff8203612300576122ff612294565b5b600182019050919050565b60006020820190506123206000830184611b32565b92915050565b60008151905061233581611aa7565b92915050565b60006020828403121561235157612350611a93565b5b600061235f84828501612326565b91505092915050565b7f4f6e6c79207468652070726f706f7365722063616e206163746976617465207460008201527f68652070726f706f73616c000000000000000000000000000000000000000000602082015250565b60006123c4602b83611b7c565b91506123cf82612368565b604082019050919050565b600060208201905081810360008301526123f3816123b7565b9050919050565b600061240582611a9d565b915061241083611a9d565b925082820190508082111561242857612427612294565b5b92915050565b7f50726f706f73616c206e6f7420696e2061637469766174696f6e20706572696f60008201527f6400000000000000000000000000000000000000000000000000000000000000602082015250565b600061248a602183611b7c565b91506124958261242e565b604082019050919050565b600060208201905081810360008301526124b98161247d565b9050919050565b7f4f6e6c792070726f706f7365722063616e2066696c616c697a6520746865207060008201527f726f706f73616c00000000000000000000000000000000000000000000000000602082015250565b600061251c602783611b7c565b9150612527826124c0565b604082019050919050565b6000602082019050818103600083015261254b8161250f565b9050919050565b7f4e6f7420656e6f756768206d656d62657273206163636570746564207468652060008201527f70726f706f73616c000000000000000000000000000000000000000000000000602082015250565b60006125ae602883611b7c565b91506125b982612552565b604082019050919050565b600060208201905081810360008301526125dd816125a1565b9050919050565b600081905092915050565b7f6e6f000000000000000000000000000000000000000000000000000000000000600082015250565b60006126256002836125e4565b9150612630826125ef565b600282019050919050565b600061264682612618565b9150819050919050565b7f54686520646561646c696e652073686f756c6420626520696e2074686520667560008201527f7475726500000000000000000000000000000000000000000000000000000000602082015250565b60006126ac602483611b7c565b91506126b782612650565b604082019050919050565b600060208201905081810360008301526126db8161269f565b9050919050565b82818337600083830152505050565b60006126fd8385611b7c565b935061270a8385846126e2565b61271383611bb7565b840190509392505050565b600060208201905081810360008301526127398184866126f1565b90509392505050565b60008151905061275181612157565b92915050565b60006020828403121561276d5761276c611a93565b5b600061277b84828501612742565b91505092915050565b600061279083856125e4565b935061279d8385846126e2565b82840190509392505050565b60006127b6828486612784565b91508190509392505050565b60008190508160005260206000209050919050565b60006020601f8301049050919050565b600082821b905092915050565b6000600883026128247fffffffffffffffffffffffffffffffffffffffffffffffffffffffffffffffff826127e7565b61282e86836127e7565b95508019841693508086168417925050509392505050565b6000819050919050565b600061286b61286661286184611a9d565b612846565b611a9d565b9050919050565b6000819050919050565b61288583612850565b61289961289182612872565b8484546127f4565b825550505050565b600090565b6128ae6128a1565b6128b981848461287c565b505050565b5b818110156128dd576128d26000826128a6565b6001810190506128bf565b5050565b601f821115612922576128f3816127c2565b6128fc846127d7565b8101602085101561290b578190505b61291f612917856127d7565b8301826128be565b50505b505050565b600082821c905092915050565b600061294560001984600802612927565b1980831691505092915050565b600061295e8383612934565b9150826002028217905092915050565b61297782611b71565b67ffffffffffffffff8111156129905761298f612236565b5b61299a8254612205565b6129a58282856128e1565b600060209050601f8311600181146129d857600084156129c6578287015190505b6129d08582612952565b865550612a38565b601f1984166129e6866127c2565b60005b82811015612a0e578489015182556001820191506020850194506020810190506129e9565b86831015612a2b5784890151612a27601f891682612934565b8355505b6001600288020188555050505b505050505050565b600082905092915050565b612a558383612a40565b67ffffffffffffffff811115612a6e57612a6d612236565b5b612a788254612205565b612a838282856128e1565b6000601f831160018114612ab25760008415612aa0578287013590505b612aaa8582612952565b865550612b12565b601f198416612ac0866127c2565b60005b82811015612ae857848901358255600182019150602085019450602081019050612ac3565b86831015612b055784890135612b01601f891682612934565b8355505b6001600288020188555050505b50505050505050565b6000612b2682611a9d565b9150612b3183611a9d565b9250828203905081811115612b4957612b48612294565b5b92915050565b7f4e487b7100000000000000000000000000000000000000000000000000000000600052602160045260246000fd5b60008190508160005260206000209050919050565b60008154612ba081612205565b612baa81866125e4565b94506001821660008114612bc55760018114612bda57612c0d565b60ff1983168652811515820286019350612c0d565b612be385612b7e565b60005b83811015612c0557815481890152600182019150602081019050612be6565b838801955050505b50505092915050565b6000612c228284612b93565b915081905092915050565b600080fd5b612c3b82611bb7565b810181811067ffffffffffffffff82111715612c5a57612c59612236565b5b80604052505050565b6000612c6d611a89565b9050612c798282612c32565b919050565b600067ffffffffffffffff821115612c9957612c98612236565b5b612ca282611bb7565b9050602081019050919050565b6000612cc2612cbd84612c7e565b612c63565b905082815260208101848484011115612cde57612cdd612c2d565b5b612ce9848285611b8d565b509392505050565b600082601f830112612d0657612d05611fc3565b5b8151612d16848260208601612caf565b91505092915050565b600060208284031215612d3557612d34611a93565b5b600082015167ffffffffffffffff811115612d5357612d52611a98565b5b612d5f84828501612cf1565b91505092915050565b60006020820190508181036000830152612d828184611bc8565b905092915050565b7f4e487b7100000000000000000000000000000000000000000000000000000000600052605160045260246000fdfea264697066735822122073f2f4336b628296425cf1b6dd091d68297e8e3169ed077385d7e30fe1e8298e64736f6c63430008140033",
  "linkReferences": {},
  "deployedLinkReferences": {}
}