{
  "_format": "hh-sol-artifact-1",
  "contractName": "SoulBound",
  "sourceName": "contracts/SoulBound.sol",
  "abi": [
    {
      "inputs": [
        {
          "internalType": "address",
          "name": "initialOwner",
          "type": "address"
        }
      ],
      "stateMutability": "nonpayable",
      "type": "constructor"
    },
    {
      "inputs": [
        {
          "internalType": "address",
          "name": "sender",
          "type": "address"
        },
        {
          "internalType": "uint256",
          "name": "tokenId",
          "type": "uint256"
        },
        {
          "internalType": "address",
          "name": "owner",
          "type": "address"
        }
      ],
      "name": "ERC721IncorrectOwner",
      "type": "error"
    },
    {
      "inputs": [
        {
          "internalType": "address",
          "name": "operator",
          "type": "address"
        },
        {
          "internalType": "uint256",
          "name": "tokenId",
          "type": "uint256"
        }
      ],
      "name": "ERC721InsufficientApproval",
      "type": "error"
    },
    {
      "inputs": [
        {
          "internalType": "address",
          "name": "approver",
          "type": "address"
        }
      ],
      "name": "ERC721InvalidApprover",
      "type": "error"
    },
    {
      "inputs": [
        {
          "internalType": "address",
          "name": "operator",
          "type": "address"
        }
      ],
      "name": "ERC721InvalidOperator",
      "type": "error"
    },
    {
      "inputs": [
        {
          "internalType": "address",
          "name": "owner",
          "type": "address"
        }
      ],
      "name": "ERC721InvalidOwner",
      "type": "error"
    },
    {
      "inputs": [
        {
          "internalType": "address",
          "name": "receiver",
          "type": "address"
        }
      ],
      "name": "ERC721InvalidReceiver",
      "type": "error"
    },
    {
      "inputs": [
        {
          "internalType": "address",
          "name": "sender",
          "type": "address"
        }
      ],
      "name": "ERC721InvalidSender",
      "type": "error"
    },
    {
      "inputs": [
        {
          "internalType": "uint256",
          "name": "tokenId",
          "type": "uint256"
        }
      ],
      "name": "ERC721NonexistentToken",
      "type": "error"
    },
    {
      "inputs": [
        {
          "internalType": "address",
          "name": "owner",
          "type": "address"
        }
      ],
      "name": "OwnableInvalidOwner",
      "type": "error"
    },
    {
      "inputs": [
        {
          "internalType": "address",
          "name": "account",
          "type": "address"
        }
      ],
      "name": "OwnableUnauthorizedAccount",
      "type": "error"
    },
    {
      "anonymous": false,
      "inputs": [
        {
          "indexed": true,
          "internalType": "address",
          "name": "owner",
          "type": "address"
        },
        {
          "indexed": true,
          "internalType": "address",
          "name": "approved",
          "type": "address"
        },
        {
          "indexed": true,
          "internalType": "uint256",
          "name": "tokenId",
          "type": "uint256"
        }
      ],
      "name": "Approval",
      "type": "event"
    },
    {
      "anonymous": false,
      "inputs": [
        {
          "indexed": true,
          "internalType": "address",
          "name": "owner",
          "type": "address"
        },
        {
          "indexed": true,
          "internalType": "address",
          "name": "operator",
          "type": "address"
        },
        {
          "indexed": false,
          "internalType": "bool",
          "name": "approved",
          "type": "bool"
        }
      ],
      "name": "ApprovalForAll",
      "type": "event"
    },
    {
      "anonymous": false,
      "inputs": [
        {
          "indexed": false,
          "internalType": "address",
          "name": "to",
          "type": "address"
        },
        {
          "indexed": false,
          "internalType": "uint256",
          "name": "tokenId",
          "type": "uint256"
        }
      ],
      "name": "Attest",
      "type": "event"
    },
    {
      "anonymous": false,
      "inputs": [
        {
          "indexed": false,
          "internalType": "uint256",
          "name": "_fromTokenId",
          "type": "uint256"
        },
        {
          "indexed": false,
          "internalType": "uint256",
          "name": "_toTokenId",
          "type": "uint256"
        }
      ],
      "name": "BatchMetadataUpdate",
      "type": "event"
    },
    {
      "anonymous": false,
      "inputs": [
        {
          "indexed": false,
          "internalType": "address",
          "name": "to",
          "type": "address"
        },
        {
          "indexed": false,
          "internalType": "uint256",
          "name": "tokenId",
          "type": "uint256"
        }
      ],
      "name": "Burn",
      "type": "event"
    },
    {
      "anonymous": false,
      "inputs": [
        {
          "indexed": false,
          "internalType": "uint256",
          "name": "_tokenId",
          "type": "uint256"
        }
      ],
      "name": "MetadataUpdate",
      "type": "event"
    },
    {
      "anonymous": false,
      "inputs": [
        {
          "indexed": true,
          "internalType": "address",
          "name": "previousOwner",
          "type": "address"
        },
        {
          "indexed": true,
          "internalType": "address",
          "name": "newOwner",
          "type": "address"
        }
      ],
      "name": "OwnershipTransferred",
      "type": "event"
    },
    {
      "anonymous": false,
      "inputs": [
        {
          "indexed": true,
          "internalType": "address",
          "name": "from",
          "type": "address"
        },
        {
          "indexed": true,
          "internalType": "address",
          "name": "to",
          "type": "address"
        },
        {
          "indexed": true,
          "internalType": "uint256",
          "name": "tokenId",
          "type": "uint256"
        }
      ],
      "name": "Transfer",
      "type": "event"
    },
    {
      "inputs": [
        {
          "internalType": "address",
          "name": "to",
          "type": "address"
        },
        {
          "internalType": "uint256",
          "name": "tokenId",
          "type": "uint256"
        }
      ],
      "name": "approve",
      "outputs": [],
      "stateMutability": "nonpayable",
      "type": "function"
    },
    {
      "inputs": [
        {
          "internalType": "address",
          "name": "caller",
          "type": "address"
        }
      ],
      "name": "balanceOf",
      "outputs": [
        {
          "internalType": "uint256",
          "name": "",
          "type": "uint256"
        }
      ],
      "stateMutability": "view",
      "type": "function"
    },
    {
      "inputs": [
        {
          "internalType": "uint256",
          "name": "tokenId",
          "type": "uint256"
        }
      ],
      "name": "burn",
      "outputs": [],
      "stateMutability": "nonpayable",
      "type": "function"
    },
    {
      "inputs": [
        {
          "internalType": "uint256",
          "name": "tokenId",
          "type": "uint256"
        }
      ],
      "name": "getApproved",
      "outputs": [
        {
          "internalType": "address",
          "name": "",
          "type": "address"
        }
      ],
      "stateMutability": "view",
      "type": "function"
    },
    {
      "inputs": [
        {
          "internalType": "address",
          "name": "owner",
          "type": "address"
        },
        {
          "internalType": "address",
          "name": "operator",
          "type": "address"
        }
      ],
      "name": "isApprovedForAll",
      "outputs": [
        {
          "internalType": "bool",
          "name": "",
          "type": "bool"
        }
      ],
      "stateMutability": "view",
      "type": "function"
    },
    {
      "inputs": [],
      "name": "name",
      "outputs": [
        {
          "internalType": "string",
          "name": "",
          "type": "string"
        }
      ],
      "stateMutability": "view",
      "type": "function"
    },
    {
      "inputs": [
        {
          "internalType": "string",
          "name": "department",
          "type": "string"
        }
      ],
      "name": "nullDepartment",
      "outputs": [
        {
          "internalType": "bool",
          "name": "",
          "type": "bool"
        }
      ],
      "stateMutability": "view",
      "type": "function"
    },
    {
      "inputs": [],
      "name": "owner",
      "outputs": [
        {
          "internalType": "address",
          "name": "",
          "type": "address"
        }
      ],
      "stateMutability": "view",
      "type": "function"
    },
    {
      "inputs": [
        {
          "internalType": "uint256",
          "name": "tokenId",
          "type": "uint256"
        }
      ],
      "name": "ownerOf",
      "outputs": [
        {
          "internalType": "address",
          "name": "",
          "type": "address"
        }
      ],
      "stateMutability": "view",
      "type": "function"
    },
    {
      "inputs": [],
      "name": "renounceOwnership",
      "outputs": [],
      "stateMutability": "nonpayable",
      "type": "function"
    },
    {
      "inputs": [
        {
          "internalType": "address",
          "name": "voter",
          "type": "address"
        }
      ],
      "name": "returnDepartment",
      "outputs": [
        {
          "internalType": "string",
          "name": "",
          "type": "string"
        }
      ],
      "stateMutability": "view",
      "type": "function"
    },
    {
      "inputs": [
        {
          "internalType": "address",
          "name": "to",
          "type": "address"
        },
        {
          "internalType": "string",
          "name": "uri",
          "type": "string"
        },
        {
          "internalType": "string",
          "name": "department",
          "type": "string"
        }
      ],
      "name": "safeMint",
      "outputs": [],
      "stateMutability": "nonpayable",
      "type": "function"
    },
    {
      "inputs": [
        {
          "internalType": "address",
          "name": "from",
          "type": "address"
        },
        {
          "internalType": "address",
          "name": "to",
          "type": "address"
        },
        {
          "internalType": "uint256",
          "name": "tokenId",
          "type": "uint256"
        }
      ],
      "name": "safeTransferFrom",
      "outputs": [],
      "stateMutability": "nonpayable",
      "type": "function"
    },
    {
      "inputs": [
        {
          "internalType": "address",
          "name": "from",
          "type": "address"
        },
        {
          "internalType": "address",
          "name": "to",
          "type": "address"
        },
        {
          "internalType": "uint256",
          "name": "tokenId",
          "type": "uint256"
        },
        {
          "internalType": "bytes",
          "name": "data",
          "type": "bytes"
        }
      ],
      "name": "safeTransferFrom",
      "outputs": [],
      "stateMutability": "nonpayable",
      "type": "function"
    },
    {
      "inputs": [
        {
          "internalType": "address",
          "name": "operator",
          "type": "address"
        },
        {
          "internalType": "bool",
          "name": "approved",
          "type": "bool"
        }
      ],
      "name": "setApprovalForAll",
      "outputs": [],
      "stateMutability": "nonpayable",
      "type": "function"
    },
    {
      "inputs": [
        {
          "internalType": "bytes4",
          "name": "interfaceId",
          "type": "bytes4"
        }
      ],
      "name": "supportsInterface",
      "outputs": [
        {
          "internalType": "bool",
          "name": "",
          "type": "bool"
        }
      ],
      "stateMutability": "view",
      "type": "function"
    },
    {
      "inputs": [],
      "name": "symbol",
      "outputs": [
        {
          "internalType": "string",
          "name": "",
          "type": "string"
        }
      ],
      "stateMutability": "view",
      "type": "function"
    },
    {
      "inputs": [
        {
          "internalType": "uint256",
          "name": "tokenId",
          "type": "uint256"
        }
      ],
      "name": "tokenURI",
      "outputs": [
        {
          "internalType": "string",
          "name": "",
          "type": "string"
        }
      ],
      "stateMutability": "view",
      "type": "function"
    },
    {
      "inputs": [
        {
          "internalType": "address",
          "name": "from",
          "type": "address"
        },
        {
          "internalType": "address",
          "name": "to",
          "type": "address"
        },
        {
          "internalType": "uint256",
          "name": "tokenId",
          "type": "uint256"
        }
      ],
      "name": "transferFrom",
      "outputs": [],
      "stateMutability": "nonpayable",
      "type": "function"
    },
    {
      "inputs": [
        {
          "internalType": "address",
          "name": "newOwner",
          "type": "address"
        }
      ],
      "name": "transferOwnership",
      "outputs": [],
      "stateMutability": "nonpayable",
      "type": "function"
    }
  ],
  "bytecode": "0x60806040523480156200001157600080fd5b5060405162003d2d38038062003d2d8339818101604052810190620000379190620003d2565b806040518060400160405280600981526020017f536f756c426f756e6400000000000000000000000000000000000000000000008152506040518060400160405280600381526020017f53425400000000000000000000000000000000000000000000000000000000008152508160009081620000b591906200067e565b508060019081620000c791906200067e565b505050600073ffffffffffffffffffffffffffffffffffffffff168173ffffffffffffffffffffffffffffffffffffffff16036200013f5760006040517f1e4fbdf700000000000000000000000000000000000000000000000000000000815260040162000136919062000776565b60405180910390fd5b6200015081620002a260201b60201c565b506001600a6040516200016390620007ee565b908152602001604051809103902060006101000a81548160ff0219169083151502179055506001600a6040516200019a9062000855565b908152602001604051809103902060006101000a81548160ff0219169083151502179055506001600a604051620001d190620008bc565b908152602001604051809103902060006101000a81548160ff0219169083151502179055506001600a604051620002089062000923565b908152602001604051809103902060006101000a81548160ff0219169083151502179055506001600a6040516200023f906200098a565b908152602001604051809103902060006101000a81548160ff0219169083151502179055506001600a6040516200027690620009f1565b908152602001604051809103902060006101000a81548160ff0219169083151502179055505062000a08565b6000600760009054906101000a900473ffffffffffffffffffffffffffffffffffffffff16905081600760006101000a81548173ffffffffffffffffffffffffffffffffffffffff021916908373ffffffffffffffffffffffffffffffffffffffff1602179055508173ffffffffffffffffffffffffffffffffffffffff168173ffffffffffffffffffffffffffffffffffffffff167f8be0079c531659141344cd1fd0a4f28419497f9722a3daafe3b4186f6b6457e060405160405180910390a35050565b600080fd5b600073ffffffffffffffffffffffffffffffffffffffff82169050919050565b60006200039a826200036d565b9050919050565b620003ac816200038d565b8114620003b857600080fd5b50565b600081519050620003cc81620003a1565b92915050565b600060208284031215620003eb57620003ea62000368565b5b6000620003fb84828501620003bb565b91505092915050565b600081519050919050565b7f4e487b7100000000000000000000000000000000000000000000000000000000600052604160045260246000fd5b7f4e487b7100000000000000000000000000000000000000000000000000000000600052602260045260246000fd5b600060028204905060018216806200048657607f821691505b6020821081036200049c576200049b6200043e565b5b50919050565b60008190508160005260206000209050919050565b60006020601f8301049050919050565b600082821b905092915050565b600060088302620005067fffffffffffffffffffffffffffffffffffffffffffffffffffffffffffffffff82620004c7565b620005128683620004c7565b95508019841693508086168417925050509392505050565b6000819050919050565b6000819050919050565b60006200055f6200055962000553846200052a565b62000534565b6200052a565b9050919050565b6000819050919050565b6200057b836200053e565b620005936200058a8262000566565b848454620004d4565b825550505050565b600090565b620005aa6200059b565b620005b781848462000570565b505050565b5b81811015620005df57620005d3600082620005a0565b600181019050620005bd565b5050565b601f8211156200062e57620005f881620004a2565b6200060384620004b7565b8101602085101562000613578190505b6200062b6200062285620004b7565b830182620005bc565b50505b505050565b600082821c905092915050565b6000620006536000198460080262000633565b1980831691505092915050565b60006200066e838362000640565b9150826002028217905092915050565b620006898262000404565b67ffffffffffffffff811115620006a557620006a46200040f565b5b620006b182546200046d565b620006be828285620005e3565b600060209050601f831160018114620006f65760008415620006e1578287015190505b620006ed858262000660565b8655506200075d565b601f1984166200070686620004a2565b60005b82811015620007305784890151825560018201915060208501945060208101905062000709565b868310156200075057848901516200074c601f89168262000640565b8355505b6001600288020188555050505b505050505050565b62000770816200038d565b82525050565b60006020820190506200078d600083018462000765565b92915050565b600081905092915050565b7f4954000000000000000000000000000000000000000000000000000000000000600082015250565b6000620007d660028362000793565b9150620007e3826200079e565b600282019050919050565b6000620007fb82620007c7565b9150819050919050565b7f434956494c000000000000000000000000000000000000000000000000000000600082015250565b60006200083d60058362000793565b91506200084a8262000805565b600582019050919050565b600062000862826200082e565b9150819050919050565b7f4353450000000000000000000000000000000000000000000000000000000000600082015250565b6000620008a460038362000793565b9150620008b1826200086c565b600382019050919050565b6000620008c98262000895565b9150819050919050565b7f4d45434800000000000000000000000000000000000000000000000000000000600082015250565b60006200090b60048362000793565b91506200091882620008d3565b600482019050919050565b60006200093082620008fc565b9150819050919050565b7f4543450000000000000000000000000000000000000000000000000000000000600082015250565b60006200097260038362000793565b91506200097f826200093a565b600382019050919050565b6000620009978262000963565b9150819050919050565b7f41494d4c00000000000000000000000000000000000000000000000000000000600082015250565b6000620009d960048362000793565b9150620009e682620009a1565b600482019050919050565b6000620009fe82620009ca565b9150819050919050565b6133158062000a186000396000f3fe608060405234801561001057600080fd5b506004361061012c5760003560e01c806386de9148116100ad578063b88d4fde11610071578063b88d4fde14610341578063c87b56dd1461035d578063e985e9c51461038d578063eca81d42146103bd578063f2fde38b146103d95761012c565b806386de9148146102895780638da5cb5b146102b957806395d89b41146102d7578063a22cb465146102f5578063ae3e66e5146103115761012c565b806342842e0e116100f457806342842e0e146101e757806342966c68146102035780636352211e1461021f57806370a082311461024f578063715018a61461027f5761012c565b806301ffc9a71461013157806306fdde0314610161578063081812fc1461017f578063095ea7b3146101af57806323b872dd146101cb575b600080fd5b61014b60048036038101906101469190612332565b6103f5565b604051610158919061237a565b60405180910390f35b610169610407565b6040516101769190612425565b60405180910390f35b6101996004803603810190610194919061247d565b610499565b6040516101a691906124eb565b60405180910390f35b6101c960048036038101906101c49190612532565b6104b5565b005b6101e560048036038101906101e09190612572565b6104cb565b005b61020160048036038101906101fc9190612572565b61068e565b005b61021d6004803603810190610218919061247d565b6106ae565b005b6102396004803603810190610234919061247d565b6107c9565b60405161024691906124eb565b60405180910390f35b610269600480360381019061026491906125c5565b6107db565b6040516102769190612601565b60405180910390f35b6102876108dd565b005b6102a3600480360381019061029e9190612681565b6108f1565b6040516102b0919061237a565b60405180910390f35b6102c1610929565b6040516102ce91906124eb565b60405180910390f35b6102df610953565b6040516102ec9190612425565b60405180910390f35b61030f600480360381019061030a91906126fa565b6109e5565b005b61032b600480360381019061032691906125c5565b6109fb565b6040516103389190612425565b60405180910390f35b61035b6004803603810190610356919061286a565b610b17565b005b6103776004803603810190610372919061247d565b610b34565b6040516103849190612425565b60405180910390f35b6103a760048036038101906103a291906128ed565b610b46565b6040516103b4919061237a565b60405180910390f35b6103d760048036038101906103d291906129ce565b610bda565b005b6103f360048036038101906103ee91906125c5565b610df0565b005b600061040082610e76565b9050919050565b60606000805461041690612a88565b80601f016020809104026020016040519081016040528092919081815260200182805461044290612a88565b801561048f5780601f106104645761010080835404028352916020019161048f565b820191906000526020600020905b81548152906001019060200180831161047257829003601f168201915b5050505050905090565b60006104a482610ed7565b506104ae82610f5f565b9050919050565b6104c782826104c2610f9c565b610fa4565b5050565b6104d3610fb6565b3373ffffffffffffffffffffffffffffffffffffffff168373ffffffffffffffffffffffffffffffffffffffff1614801561053a5750600073ffffffffffffffffffffffffffffffffffffffff168273ffffffffffffffffffffffffffffffffffffffff16145b610579576040517f08c379a000000000000000000000000000000000000000000000000000000000815260040161057090612b05565b60405180910390fd5b3373ffffffffffffffffffffffffffffffffffffffff16610599826107c9565b73ffffffffffffffffffffffffffffffffffffffff16146105ef576040517f08c379a00000000000000000000000000000000000000000000000000000000081526004016105e690612b71565b60405180910390fd5b7fcc16f5dbb4873280815c1ee09dbd06736cffcc184412cf7a71a0fdb75d397ca58282604051610620929190612b91565b60405180910390a16000600b60003373ffffffffffffffffffffffffffffffffffffffff1673ffffffffffffffffffffffffffffffffffffffff16815260200190815260200160002060006101000a81548160ff0219169083151502179055506106898161103d565b505050565b6106a983838360405180602001604052806000815250610b17565b505050565b6106b6610fb6565b3373ffffffffffffffffffffffffffffffffffffffff166106d6826107c9565b73ffffffffffffffffffffffffffffffffffffffff161461072c576040517f08c379a000000000000000000000000000000000000000000000000000000000815260040161072390612b71565b60405180910390fd5b6000600b60003373ffffffffffffffffffffffffffffffffffffffff1673ffffffffffffffffffffffffffffffffffffffff16815260200190815260200160002060006101000a81548160ff0219169083151502179055507fcc16f5dbb4873280815c1ee09dbd06736cffcc184412cf7a71a0fdb75d397ca533826040516107b5929190612b91565b60405180910390a16107c68161103d565b50565b60006107d482610ed7565b9050919050565b60006107e6436110c3565b610872826040518060400160405280600281526020017f3d3e000000000000000000000000000000000000000000000000000000000000815250600b60008673ffffffffffffffffffffffffffffffffffffffff1673ffffffffffffffffffffffffffffffffffffffff16815260200190815260200160002060009054906101000a900460ff1661115c565b60001515600b60008473ffffffffffffffffffffffffffffffffffffffff1673ffffffffffffffffffffffffffffffffffffffff16815260200190815260200160002060009054906101000a900460ff161515036108d357600090506108d8565b600190505b919050565b6108e5610fb6565b6108ef60006111fb565b565b6000600a8383604051610905929190612bea565b908152602001604051809103902060009054906101000a900460ff16905092915050565b6000600760009054906101000a900473ffffffffffffffffffffffffffffffffffffffff16905090565b60606001805461096290612a88565b80601f016020809104026020016040519081016040528092919081815260200182805461098e90612a88565b80156109db5780601f106109b0576101008083540402835291602001916109db565b820191906000526020600020905b8154815290600101906020018083116109be57829003601f168201915b5050505050905090565b6109f76109f0610f9c565b83836112c1565b5050565b60606001610a08836107db565b14610a48576040517f08c379a0000000000000000000000000000000000000000000000000000000008152600401610a3f90612c4f565b60405180910390fd5b600960008373ffffffffffffffffffffffffffffffffffffffff1673ffffffffffffffffffffffffffffffffffffffff1681526020019081526020016000208054610a9290612a88565b80601f0160208091040260200160405190810160405280929190818152602001828054610abe90612a88565b8015610b0b5780601f10610ae057610100808354040283529160200191610b0b565b820191906000526020600020905b815481529060010190602001808311610aee57829003601f168201915b50505050509050919050565b610b228484846104cb565b610b2e84848484611430565b50505050565b6060610b3f826115e7565b9050919050565b6000600560008473ffffffffffffffffffffffffffffffffffffffff1673ffffffffffffffffffffffffffffffffffffffff16815260200190815260200160002060008373ffffffffffffffffffffffffffffffffffffffff1673ffffffffffffffffffffffffffffffffffffffff16815260200190815260200160002060009054906101000a900460ff16905092915050565b610be2610fb6565b3373ffffffffffffffffffffffffffffffffffffffff168373ffffffffffffffffffffffffffffffffffffffff1603610c50576040517f08c379a0000000000000000000000000000000000000000000000000000000008152600401610c4790612ce1565b60405180910390fd5b60011515600a82604051610c649190612d32565b908152602001604051809103902060009054906101000a900460ff16151514610cc2576040517f08c379a0000000000000000000000000000000000000000000000000000000008152600401610cb990612d95565b60405180910390fd5b6000610ccd846107db565b14610d0d576040517f08c379a0000000000000000000000000000000000000000000000000000000008152600401610d0490612e27565b60405180910390fd5b610d16836116fa565b600060086000815480929190610d2b90612e76565b9190505590506001600b60008673ffffffffffffffffffffffffffffffffffffffff1673ffffffffffffffffffffffffffffffffffffffff16815260200190815260200160002060006101000a81548160ff021916908315150217905550610d938482611793565b610d9d818461188c565b81600960008673ffffffffffffffffffffffffffffffffffffffff1673ffffffffffffffffffffffffffffffffffffffff1681526020019081526020016000209081610de9919061306a565b5050505050565b610df8610fb6565b600073ffffffffffffffffffffffffffffffffffffffff168173ffffffffffffffffffffffffffffffffffffffff1603610e6a5760006040517f1e4fbdf7000000000000000000000000000000000000000000000000000000008152600401610e6191906124eb565b60405180910390fd5b610e73816111fb565b50565b6000634906490660e01b7bffffffffffffffffffffffffffffffffffffffffffffffffffffffff1916827bffffffffffffffffffffffffffffffffffffffffffffffffffffffff19161480610ed05750610ecf826118e8565b5b9050919050565b600080610ee3836119ca565b9050600073ffffffffffffffffffffffffffffffffffffffff168173ffffffffffffffffffffffffffffffffffffffff1603610f5657826040517f7e273289000000000000000000000000000000000000000000000000000000008152600401610f4d9190612601565b60405180910390fd5b80915050919050565b60006004600083815260200190815260200160002060009054906101000a900473ffffffffffffffffffffffffffffffffffffffff169050919050565b600033905090565b610fb18383836001611a07565b505050565b610fbe610f9c565b73ffffffffffffffffffffffffffffffffffffffff16610fdc610929565b73ffffffffffffffffffffffffffffffffffffffff161461103b57610fff610f9c565b6040517f118cdaa700000000000000000000000000000000000000000000000000000000815260040161103291906124eb565b60405180910390fd5b565b600061104c6000836000611bcc565b9050600073ffffffffffffffffffffffffffffffffffffffff168173ffffffffffffffffffffffffffffffffffffffff16036110bf57816040517f7e2732890000000000000000000000000000000000000000000000000000000081526004016110b69190612601565b60405180910390fd5b5050565b611159816040516024016110d79190612601565b6040516020818303038152906040527ff82c50f1000000000000000000000000000000000000000000000000000000007bffffffffffffffffffffffffffffffffffffffffffffffffffffffff19166020820180517bffffffffffffffffffffffffffffffffffffffffffffffffffffffff8381831617835250505050611de6565b50565b6111f68383836040516024016111749392919061313c565b6040516020818303038152906040527fcf020fb1000000000000000000000000000000000000000000000000000000007bffffffffffffffffffffffffffffffffffffffffffffffffffffffff19166020820180517bffffffffffffffffffffffffffffffffffffffffffffffffffffffff8381831617835250505050611de6565b505050565b6000600760009054906101000a900473ffffffffffffffffffffffffffffffffffffffff16905081600760006101000a81548173ffffffffffffffffffffffffffffffffffffffff021916908373ffffffffffffffffffffffffffffffffffffffff1602179055508173ffffffffffffffffffffffffffffffffffffffff168173ffffffffffffffffffffffffffffffffffffffff167f8be0079c531659141344cd1fd0a4f28419497f9722a3daafe3b4186f6b6457e060405160405180910390a35050565b600073ffffffffffffffffffffffffffffffffffffffff168273ffffffffffffffffffffffffffffffffffffffff160361133257816040517f5b08ba1800000000000000000000000000000000000000000000000000000000815260040161132991906124eb565b60405180910390fd5b80600560008573ffffffffffffffffffffffffffffffffffffffff1673ffffffffffffffffffffffffffffffffffffffff16815260200190815260200160002060008473ffffffffffffffffffffffffffffffffffffffff1673ffffffffffffffffffffffffffffffffffffffff16815260200190815260200160002060006101000a81548160ff0219169083151502179055508173ffffffffffffffffffffffffffffffffffffffff168373ffffffffffffffffffffffffffffffffffffffff167f17307eab39ab6107e8899845ad3d59bd9653f200f220920489ca2b5937696c3183604051611423919061237a565b60405180910390a3505050565b60008373ffffffffffffffffffffffffffffffffffffffff163b11156115e1578273ffffffffffffffffffffffffffffffffffffffff1663150b7a02611474610f9c565b8685856040518563ffffffff1660e01b815260040161149694939291906131cf565b6020604051808303816000875af19250505080156114d257506040513d601f19601f820116820180604052508101906114cf9190613230565b60015b611556573d8060008114611502576040519150601f19603f3d011682016040523d82523d6000602084013e611507565b606091505b50600081510361154e57836040517f64a0ae9200000000000000000000000000000000000000000000000000000000815260040161154591906124eb565b60405180910390fd5b805181602001fd5b63150b7a0260e01b7bffffffffffffffffffffffffffffffffffffffffffffffffffffffff1916817bffffffffffffffffffffffffffffffffffffffffffffffffffffffff1916146115df57836040517f64a0ae920000000000000000000000000000000000000000000000000000000081526004016115d691906124eb565b60405180910390fd5b505b50505050565b60606115f282610ed7565b50600060066000848152602001908152602001600020805461161390612a88565b80601f016020809104026020016040519081016040528092919081815260200182805461163f90612a88565b801561168c5780601f106116615761010080835404028352916020019161168c565b820191906000526020600020905b81548152906001019060200180831161166f57829003601f168201915b50505050509050600061169d611e00565b905060008151036116b25781925050506116f5565b6000825111156116e75780826040516020016116cf92919061325d565b604051602081830303815290604052925050506116f5565b6116f084611e17565b925050505b919050565b6117908160405160240161170e91906124eb565b6040516020818303038152906040527f2c2ecbc2000000000000000000000000000000000000000000000000000000007bffffffffffffffffffffffffffffffffffffffffffffffffffffffff19166020820180517bffffffffffffffffffffffffffffffffffffffffffffffffffffffff8381831617835250505050611de6565b50565b600073ffffffffffffffffffffffffffffffffffffffff168273ffffffffffffffffffffffffffffffffffffffff16036118055760006040517f64a0ae920000000000000000000000000000000000000000000000000000000081526004016117fc91906124eb565b60405180910390fd5b600061181383836000611bcc565b9050600073ffffffffffffffffffffffffffffffffffffffff168173ffffffffffffffffffffffffffffffffffffffff16146118875760006040517f73c6ac6e00000000000000000000000000000000000000000000000000000000815260040161187e91906124eb565b60405180910390fd5b505050565b806006600084815260200190815260200160002090816118ac919061306a565b507ff8e1a15aba9398e019f0b49df1a4fde98ee17ae345cb5f6b5e2c27f5033e8ce7826040516118dc9190612601565b60405180910390a15050565b60007f80ac58cd000000000000000000000000000000000000000000000000000000007bffffffffffffffffffffffffffffffffffffffffffffffffffffffff1916827bffffffffffffffffffffffffffffffffffffffffffffffffffffffff191614806119b357507f5b5e139f000000000000000000000000000000000000000000000000000000007bffffffffffffffffffffffffffffffffffffffffffffffffffffffff1916827bffffffffffffffffffffffffffffffffffffffffffffffffffffffff1916145b806119c357506119c282611e80565b5b9050919050565b60006002600083815260200190815260200160002060009054906101000a900473ffffffffffffffffffffffffffffffffffffffff169050919050565b8080611a405750600073ffffffffffffffffffffffffffffffffffffffff168273ffffffffffffffffffffffffffffffffffffffff1614155b15611b74576000611a5084610ed7565b9050600073ffffffffffffffffffffffffffffffffffffffff168373ffffffffffffffffffffffffffffffffffffffff1614158015611abb57508273ffffffffffffffffffffffffffffffffffffffff168173ffffffffffffffffffffffffffffffffffffffff1614155b8015611ace5750611acc8184610b46565b155b15611b1057826040517fa9fbf51f000000000000000000000000000000000000000000000000000000008152600401611b0791906124eb565b60405180910390fd5b8115611b7257838573ffffffffffffffffffffffffffffffffffffffff168273ffffffffffffffffffffffffffffffffffffffff167f8c5be1e5ebec7d5bd14f71427d1e84f3dd0314c0f7b2291e5b200ac8c7c3b92560405160405180910390a45b505b836004600085815260200190815260200160002060006101000a81548173ffffffffffffffffffffffffffffffffffffffff021916908373ffffffffffffffffffffffffffffffffffffffff16021790555050505050565b600080611bd8846119ca565b9050600073ffffffffffffffffffffffffffffffffffffffff168373ffffffffffffffffffffffffffffffffffffffff1614611c1a57611c19818486611eea565b5b600073ffffffffffffffffffffffffffffffffffffffff168173ffffffffffffffffffffffffffffffffffffffff1614611cab57611c5c600085600080611a07565b6001600360008373ffffffffffffffffffffffffffffffffffffffff1673ffffffffffffffffffffffffffffffffffffffff168152602001908152602001600020600082825403925050819055505b600073ffffffffffffffffffffffffffffffffffffffff168573ffffffffffffffffffffffffffffffffffffffff1614611d2e576001600360008773ffffffffffffffffffffffffffffffffffffffff1673ffffffffffffffffffffffffffffffffffffffff168152602001908152602001600020600082825401925050819055505b846002600086815260200190815260200160002060006101000a81548173ffffffffffffffffffffffffffffffffffffffff021916908373ffffffffffffffffffffffffffffffffffffffff160217905550838573ffffffffffffffffffffffffffffffffffffffff168273ffffffffffffffffffffffffffffffffffffffff167fddf252ad1be2c89b69c2b068fc378daa952ba7f163c4a11628f55a4df523b3ef60405160405180910390a4809150509392505050565b611dfd81611df5611fae611fcf565b63ffffffff16565b50565b606060405180602001604052806000815250905090565b6060611e2282610ed7565b506000611e2d611e00565b90506000815111611e4d5760405180602001604052806000815250611e78565b80611e5784611fda565b604051602001611e6892919061325d565b6040516020818303038152906040525b915050919050565b60007f01ffc9a7000000000000000000000000000000000000000000000000000000007bffffffffffffffffffffffffffffffffffffffffffffffffffffffff1916827bffffffffffffffffffffffffffffffffffffffffffffffffffffffff1916149050919050565b611ef58383836120a8565b611fa957600073ffffffffffffffffffffffffffffffffffffffff168373ffffffffffffffffffffffffffffffffffffffff1603611f6a57806040517f7e273289000000000000000000000000000000000000000000000000000000008152600401611f619190612601565b60405180910390fd5b81816040517f177e802f000000000000000000000000000000000000000000000000000000008152600401611fa0929190612b91565b60405180910390fd5b505050565b60006a636f6e736f6c652e6c6f679050600080835160208501845afa505050565b6122bc819050919050565b606060006001611fe984612169565b01905060008167ffffffffffffffff8111156120085761200761273f565b5b6040519080825280601f01601f19166020018201604052801561203a5781602001600182028036833780820191505090505b509050600082602001820190505b60011561209d578080600190039150507f3031323334353637383961626364656600000000000000000000000000000000600a86061a8153600a858161209157612090613281565b5b04945060008503612048575b819350505050919050565b60008073ffffffffffffffffffffffffffffffffffffffff168373ffffffffffffffffffffffffffffffffffffffff161415801561216057508273ffffffffffffffffffffffffffffffffffffffff168473ffffffffffffffffffffffffffffffffffffffff16148061212157506121208484610b46565b5b8061215f57508273ffffffffffffffffffffffffffffffffffffffff1661214783610f5f565b73ffffffffffffffffffffffffffffffffffffffff16145b5b90509392505050565b600080600090507a184f03e93ff9f4daa797ed6e38ed64bf6a1f01000000000000000083106121c7577a184f03e93ff9f4daa797ed6e38ed64bf6a1f01000000000000000083816121bd576121bc613281565b5b0492506040810190505b6d04ee2d6d415b85acef81000000008310612204576d04ee2d6d415b85acef810000000083816121fa576121f9613281565b5b0492506020810190505b662386f26fc10000831061223357662386f26fc10000838161222957612228613281565b5b0492506010810190505b6305f5e100831061225c576305f5e100838161225257612251613281565b5b0492506008810190505b612710831061228157612710838161227757612276613281565b5b0492506004810190505b606483106122a4576064838161229a57612299613281565b5b0492506002810190505b600a83106122b3576001810190505b80915050919050565b6122c46132b0565b565b6000604051905090565b600080fd5b600080fd5b60007fffffffff0000000000000000000000000000000000000000000000000000000082169050919050565b61230f816122da565b811461231a57600080fd5b50565b60008135905061232c81612306565b92915050565b600060208284031215612348576123476122d0565b5b60006123568482850161231d565b91505092915050565b60008115159050919050565b6123748161235f565b82525050565b600060208201905061238f600083018461236b565b92915050565b600081519050919050565b600082825260208201905092915050565b60005b838110156123cf5780820151818401526020810190506123b4565b60008484015250505050565b6000601f19601f8301169050919050565b60006123f782612395565b61240181856123a0565b93506124118185602086016123b1565b61241a816123db565b840191505092915050565b6000602082019050818103600083015261243f81846123ec565b905092915050565b6000819050919050565b61245a81612447565b811461246557600080fd5b50565b60008135905061247781612451565b92915050565b600060208284031215612493576124926122d0565b5b60006124a184828501612468565b91505092915050565b600073ffffffffffffffffffffffffffffffffffffffff82169050919050565b60006124d5826124aa565b9050919050565b6124e5816124ca565b82525050565b600060208201905061250060008301846124dc565b92915050565b61250f816124ca565b811461251a57600080fd5b50565b60008135905061252c81612506565b92915050565b60008060408385031215612549576125486122d0565b5b60006125578582860161251d565b925050602061256885828601612468565b9150509250929050565b60008060006060848603121561258b5761258a6122d0565b5b60006125998682870161251d565b93505060206125aa8682870161251d565b92505060406125bb86828701612468565b9150509250925092565b6000602082840312156125db576125da6122d0565b5b60006125e98482850161251d565b91505092915050565b6125fb81612447565b82525050565b600060208201905061261660008301846125f2565b92915050565b600080fd5b600080fd5b600080fd5b60008083601f8401126126415761264061261c565b5b8235905067ffffffffffffffff81111561265e5761265d612621565b5b60208301915083600182028301111561267a57612679612626565b5b9250929050565b60008060208385031215612698576126976122d0565b5b600083013567ffffffffffffffff8111156126b6576126b56122d5565b5b6126c28582860161262b565b92509250509250929050565b6126d78161235f565b81146126e257600080fd5b50565b6000813590506126f4816126ce565b92915050565b60008060408385031215612711576127106122d0565b5b600061271f8582860161251d565b9250506020612730858286016126e5565b9150509250929050565b600080fd5b7f4e487b7100000000000000000000000000000000000000000000000000000000600052604160045260246000fd5b612777826123db565b810181811067ffffffffffffffff821117156127965761279561273f565b5b80604052505050565b60006127a96122c6565b90506127b5828261276e565b919050565b600067ffffffffffffffff8211156127d5576127d461273f565b5b6127de826123db565b9050602081019050919050565b82818337600083830152505050565b600061280d612808846127ba565b61279f565b9050828152602081018484840111156128295761282861273a565b5b6128348482856127eb565b509392505050565b600082601f8301126128515761285061261c565b5b81356128618482602086016127fa565b91505092915050565b60008060008060808587031215612884576128836122d0565b5b60006128928782880161251d565b94505060206128a38782880161251d565b93505060406128b487828801612468565b925050606085013567ffffffffffffffff8111156128d5576128d46122d5565b5b6128e18782880161283c565b91505092959194509250565b60008060408385031215612904576129036122d0565b5b60006129128582860161251d565b92505060206129238582860161251d565b9150509250929050565b600067ffffffffffffffff8211156129485761294761273f565b5b612951826123db565b9050602081019050919050565b600061297161296c8461292d565b61279f565b90508281526020810184848401111561298d5761298c61273a565b5b6129988482856127eb565b509392505050565b600082601f8301126129b5576129b461261c565b5b81356129c584826020860161295e565b91505092915050565b6000806000606084860312156129e7576129e66122d0565b5b60006129f58682870161251d565b935050602084013567ffffffffffffffff811115612a1657612a156122d5565b5b612a22868287016129a0565b925050604084013567ffffffffffffffff811115612a4357612a426122d5565b5b612a4f868287016129a0565b9150509250925092565b7f4e487b7100000000000000000000000000000000000000000000000000000000600052602260045260246000fd5b60006002820490506001821680612aa057607f821691505b602082108103612ab357612ab2612a59565b5b50919050565b7f596f752063616e2774207472616e73666572207468697320746f6b656e000000600082015250565b6000612aef601d836123a0565b9150612afa82612ab9565b602082019050919050565b60006020820190508181036000830152612b1e81612ae2565b9050919050565b7f4f6e6c79206f776e65722063616e206275726e20746f6b656e00000000000000600082015250565b6000612b5b6019836123a0565b9150612b6682612b25565b602082019050919050565b60006020820190508181036000830152612b8a81612b4e565b9050919050565b6000604082019050612ba660008301856124dc565b612bb360208301846125f2565b9392505050565b600081905092915050565b6000612bd18385612bba565b9350612bde8385846127eb565b82840190509392505050565b6000612bf7828486612bc5565b91508190509392505050565b7f53686f756c642062652061206d656d6265722066697273740000000000000000600082015250565b6000612c396018836123a0565b9150612c4482612c03565b602082019050919050565b60006020820190508181036000830152612c6881612c2c565b9050919050565b7f796f752063616e2774206d696e7420616e2053425420666f7220796f7572736560008201527f6c66000000000000000000000000000000000000000000000000000000000000602082015250565b6000612ccb6022836123a0565b9150612cd682612c6f565b604082019050919050565b60006020820190508181036000830152612cfa81612cbe565b9050919050565b6000612d0c82612395565b612d168185612bba565b9350612d268185602086016123b1565b80840191505092915050565b6000612d3e8284612d01565b915081905092915050565b7f4e6f2073756368206465706172746d656e740000000000000000000000000000600082015250565b6000612d7f6012836123a0565b9150612d8a82612d49565b602082019050919050565b60006020820190508181036000830152612dae81612d72565b9050919050565b7f5342542063616e206f6e6c79206265206d696e746564206f6e636520666f722060008201527f6f6e652061646472657373000000000000000000000000000000000000000000602082015250565b6000612e11602b836123a0565b9150612e1c82612db5565b604082019050919050565b60006020820190508181036000830152612e4081612e04565b9050919050565b7f4e487b7100000000000000000000000000000000000000000000000000000000600052601160045260246000fd5b6000612e8182612447565b91507fffffffffffffffffffffffffffffffffffffffffffffffffffffffffffffffff8203612eb357612eb2612e47565b5b600182019050919050565b60008190508160005260206000209050919050565b60006020601f8301049050919050565b600082821b905092915050565b600060088302612f207fffffffffffffffffffffffffffffffffffffffffffffffffffffffffffffffff82612ee3565b612f2a8683612ee3565b95508019841693508086168417925050509392505050565b6000819050919050565b6000612f67612f62612f5d84612447565b612f42565b612447565b9050919050565b6000819050919050565b612f8183612f4c565b612f95612f8d82612f6e565b848454612ef0565b825550505050565b600090565b612faa612f9d565b612fb5818484612f78565b505050565b5b81811015612fd957612fce600082612fa2565b600181019050612fbb565b5050565b601f82111561301e57612fef81612ebe565b612ff884612ed3565b81016020851015613007578190505b61301b61301385612ed3565b830182612fba565b50505b505050565b600082821c905092915050565b600061304160001984600802613023565b1980831691505092915050565b600061305a8383613030565b9150826002028217905092915050565b61307382612395565b67ffffffffffffffff81111561308c5761308b61273f565b5b6130968254612a88565b6130a1828285612fdd565b600060209050601f8311600181146130d457600084156130c2578287015190505b6130cc858261304e565b865550613134565b601f1984166130e286612ebe565b60005b8281101561310a578489015182556001820191506020850194506020810190506130e5565b868310156131275784890151613123601f891682613030565b8355505b6001600288020188555050505b505050505050565b600060608201905061315160008301866124dc565b818103602083015261316381856123ec565b9050613172604083018461236b565b949350505050565b600081519050919050565b600082825260208201905092915050565b60006131a18261317a565b6131ab8185613185565b93506131bb8185602086016123b1565b6131c4816123db565b840191505092915050565b60006080820190506131e460008301876124dc565b6131f160208301866124dc565b6131fe60408301856125f2565b81810360608301526132108184613196565b905095945050505050565b60008151905061322a81612306565b92915050565b600060208284031215613246576132456122d0565b5b60006132548482850161321b565b91505092915050565b60006132698285612d01565b91506132758284612d01565b91508190509392505050565b7f4e487b7100000000000000000000000000000000000000000000000000000000600052601260045260246000fd5b7f4e487b7100000000000000000000000000000000000000000000000000000000600052605160045260246000fdfea264697066735822122045ab088be9e2b7b00aaa132060f24ed84419f905040ccfdecf50cafa8d822e8364736f6c63430008140033",
  "linkReferences": {},
  "deployedLinkReferences": {}
}