{
  "_format": "hh-sol-artifact-1",
  "contractName": "SoulBound",
  "sourceName": "contracts/SoulBound.sol",
  "abi": [
    {
      "inputs": [
        {
          "internalType": "address",
          "name": "initialOwner",
          "type": "address"
        }
      ],
      "stateMutability": "nonpayable",
      "type": "constructor"
    },
    {
      "inputs": [
        {
          "internalType": "address",
          "name": "sender",
          "type": "address"
        },
        {
          "internalType": "uint256",
          "name": "tokenId",
          "type": "uint256"
        },
        {
          "internalType": "address",
          "name": "owner",
          "type": "address"
        }
      ],
      "name": "ERC721IncorrectOwner",
      "type": "error"
    },
    {
      "inputs": [
        {
          "internalType": "address",
          "name": "operator",
          "type": "address"
        },
        {
          "internalType": "uint256",
          "name": "tokenId",
          "type": "uint256"
        }
      ],
      "name": "ERC721InsufficientApproval",
      "type": "error"
    },
    {
      "inputs": [
        {
          "internalType": "address",
          "name": "approver",
          "type": "address"
        }
      ],
      "name": "ERC721InvalidApprover",
      "type": "error"
    },
    {
      "inputs": [
        {
          "internalType": "address",
          "name": "operator",
          "type": "address"
        }
      ],
      "name": "ERC721InvalidOperator",
      "type": "error"
    },
    {
      "inputs": [
        {
          "internalType": "address",
          "name": "owner",
          "type": "address"
        }
      ],
      "name": "ERC721InvalidOwner",
      "type": "error"
    },
    {
      "inputs": [
        {
          "internalType": "address",
          "name": "receiver",
          "type": "address"
        }
      ],
      "name": "ERC721InvalidReceiver",
      "type": "error"
    },
    {
      "inputs": [
        {
          "internalType": "address",
          "name": "sender",
          "type": "address"
        }
      ],
      "name": "ERC721InvalidSender",
      "type": "error"
    },
    {
      "inputs": [
        {
          "internalType": "uint256",
          "name": "tokenId",
          "type": "uint256"
        }
      ],
      "name": "ERC721NonexistentToken",
      "type": "error"
    },
    {
      "inputs": [
        {
          "internalType": "address",
          "name": "owner",
          "type": "address"
        }
      ],
      "name": "OwnableInvalidOwner",
      "type": "error"
    },
    {
      "inputs": [
        {
          "internalType": "address",
          "name": "account",
          "type": "address"
        }
      ],
      "name": "OwnableUnauthorizedAccount",
      "type": "error"
    },
    {
      "anonymous": false,
      "inputs": [
        {
          "indexed": true,
          "internalType": "address",
          "name": "owner",
          "type": "address"
        },
        {
          "indexed": true,
          "internalType": "address",
          "name": "approved",
          "type": "address"
        },
        {
          "indexed": true,
          "internalType": "uint256",
          "name": "tokenId",
          "type": "uint256"
        }
      ],
      "name": "Approval",
      "type": "event"
    },
    {
      "anonymous": false,
      "inputs": [
        {
          "indexed": true,
          "internalType": "address",
          "name": "owner",
          "type": "address"
        },
        {
          "indexed": true,
          "internalType": "address",
          "name": "operator",
          "type": "address"
        },
        {
          "indexed": false,
          "internalType": "bool",
          "name": "approved",
          "type": "bool"
        }
      ],
      "name": "ApprovalForAll",
      "type": "event"
    },
    {
      "anonymous": false,
      "inputs": [
        {
          "indexed": false,
          "internalType": "address",
          "name": "to",
          "type": "address"
        },
        {
          "indexed": false,
          "internalType": "uint256",
          "name": "tokenId",
          "type": "uint256"
        }
      ],
      "name": "Attest",
      "type": "event"
    },
    {
      "anonymous": false,
      "inputs": [
        {
          "indexed": false,
          "internalType": "uint256",
          "name": "_fromTokenId",
          "type": "uint256"
        },
        {
          "indexed": false,
          "internalType": "uint256",
          "name": "_toTokenId",
          "type": "uint256"
        }
      ],
      "name": "BatchMetadataUpdate",
      "type": "event"
    },
    {
      "anonymous": false,
      "inputs": [
        {
          "indexed": false,
          "internalType": "address",
          "name": "to",
          "type": "address"
        },
        {
          "indexed": false,
          "internalType": "uint256",
          "name": "tokenId",
          "type": "uint256"
        }
      ],
      "name": "Burn",
      "type": "event"
    },
    {
      "anonymous": false,
      "inputs": [
        {
          "indexed": false,
          "internalType": "uint256",
          "name": "_tokenId",
          "type": "uint256"
        }
      ],
      "name": "MetadataUpdate",
      "type": "event"
    },
    {
      "anonymous": false,
      "inputs": [
        {
          "indexed": true,
          "internalType": "address",
          "name": "previousOwner",
          "type": "address"
        },
        {
          "indexed": true,
          "internalType": "address",
          "name": "newOwner",
          "type": "address"
        }
      ],
      "name": "OwnershipTransferred",
      "type": "event"
    },
    {
      "anonymous": false,
      "inputs": [
        {
          "indexed": true,
          "internalType": "address",
          "name": "from",
          "type": "address"
        },
        {
          "indexed": true,
          "internalType": "address",
          "name": "to",
          "type": "address"
        },
        {
          "indexed": true,
          "internalType": "uint256",
          "name": "tokenId",
          "type": "uint256"
        }
      ],
      "name": "Transfer",
      "type": "event"
    },
    {
      "inputs": [
        {
          "internalType": "address",
          "name": "to",
          "type": "address"
        },
        {
          "internalType": "uint256",
          "name": "tokenId",
          "type": "uint256"
        }
      ],
      "name": "approve",
      "outputs": [],
      "stateMutability": "nonpayable",
      "type": "function"
    },
    {
      "inputs": [
        {
          "internalType": "address",
          "name": "caller",
          "type": "address"
        }
      ],
      "name": "balanceOf",
      "outputs": [
        {
          "internalType": "uint256",
          "name": "",
          "type": "uint256"
        }
      ],
      "stateMutability": "view",
      "type": "function"
    },
    {
      "inputs": [
        {
          "internalType": "uint256",
          "name": "tokenId",
          "type": "uint256"
        }
      ],
      "name": "burn",
      "outputs": [],
      "stateMutability": "nonpayable",
      "type": "function"
    },
    {
      "inputs": [
        {
          "internalType": "address",
          "name": "voter",
          "type": "address"
        }
      ],
      "name": "departmentOf",
      "outputs": [
        {
          "internalType": "string",
          "name": "",
          "type": "string"
        }
      ],
      "stateMutability": "view",
      "type": "function"
    },
    {
      "inputs": [
        {
          "internalType": "uint256",
          "name": "tokenId",
          "type": "uint256"
        }
      ],
      "name": "getApproved",
      "outputs": [
        {
          "internalType": "address",
          "name": "",
          "type": "address"
        }
      ],
      "stateMutability": "view",
      "type": "function"
    },
    {
      "inputs": [
        {
          "internalType": "address",
          "name": "owner",
          "type": "address"
        },
        {
          "internalType": "address",
          "name": "operator",
          "type": "address"
        }
      ],
      "name": "isApprovedForAll",
      "outputs": [
        {
          "internalType": "bool",
          "name": "",
          "type": "bool"
        }
      ],
      "stateMutability": "view",
      "type": "function"
    },
    {
      "inputs": [],
      "name": "name",
      "outputs": [
        {
          "internalType": "string",
          "name": "",
          "type": "string"
        }
      ],
      "stateMutability": "view",
      "type": "function"
    },
    {
      "inputs": [
        {
          "internalType": "string",
          "name": "department",
          "type": "string"
        }
      ],
      "name": "nullDepartment",
      "outputs": [
        {
          "internalType": "bool",
          "name": "",
          "type": "bool"
        }
      ],
      "stateMutability": "view",
      "type": "function"
    },
    {
      "inputs": [],
      "name": "owner",
      "outputs": [
        {
          "internalType": "address",
          "name": "",
          "type": "address"
        }
      ],
      "stateMutability": "view",
      "type": "function"
    },
    {
      "inputs": [
        {
          "internalType": "uint256",
          "name": "tokenId",
          "type": "uint256"
        }
      ],
      "name": "ownerOf",
      "outputs": [
        {
          "internalType": "address",
          "name": "",
          "type": "address"
        }
      ],
      "stateMutability": "view",
      "type": "function"
    },
    {
      "inputs": [],
      "name": "renounceOwnership",
      "outputs": [],
      "stateMutability": "nonpayable",
      "type": "function"
    },
    {
      "inputs": [
        {
          "internalType": "address",
          "name": "to",
          "type": "address"
        },
        {
          "internalType": "string",
          "name": "uri",
          "type": "string"
        },
        {
          "internalType": "string",
          "name": "department",
          "type": "string"
        }
      ],
      "name": "safeMint",
      "outputs": [],
      "stateMutability": "nonpayable",
      "type": "function"
    },
    {
      "inputs": [
        {
          "internalType": "address",
          "name": "from",
          "type": "address"
        },
        {
          "internalType": "address",
          "name": "to",
          "type": "address"
        },
        {
          "internalType": "uint256",
          "name": "tokenId",
          "type": "uint256"
        }
      ],
      "name": "safeTransferFrom",
      "outputs": [],
      "stateMutability": "nonpayable",
      "type": "function"
    },
    {
      "inputs": [
        {
          "internalType": "address",
          "name": "from",
          "type": "address"
        },
        {
          "internalType": "address",
          "name": "to",
          "type": "address"
        },
        {
          "internalType": "uint256",
          "name": "tokenId",
          "type": "uint256"
        },
        {
          "internalType": "bytes",
          "name": "data",
          "type": "bytes"
        }
      ],
      "name": "safeTransferFrom",
      "outputs": [],
      "stateMutability": "nonpayable",
      "type": "function"
    },
    {
      "inputs": [
        {
          "internalType": "address",
          "name": "operator",
          "type": "address"
        },
        {
          "internalType": "bool",
          "name": "approved",
          "type": "bool"
        }
      ],
      "name": "setApprovalForAll",
      "outputs": [],
      "stateMutability": "nonpayable",
      "type": "function"
    },
    {
      "inputs": [
        {
          "internalType": "bytes4",
          "name": "interfaceId",
          "type": "bytes4"
        }
      ],
      "name": "supportsInterface",
      "outputs": [
        {
          "internalType": "bool",
          "name": "",
          "type": "bool"
        }
      ],
      "stateMutability": "view",
      "type": "function"
    },
    {
      "inputs": [],
      "name": "symbol",
      "outputs": [
        {
          "internalType": "string",
          "name": "",
          "type": "string"
        }
      ],
      "stateMutability": "view",
      "type": "function"
    },
    {
      "inputs": [
        {
          "internalType": "uint256",
          "name": "tokenId",
          "type": "uint256"
        }
      ],
      "name": "tokenURI",
      "outputs": [
        {
          "internalType": "string",
          "name": "",
          "type": "string"
        }
      ],
      "stateMutability": "view",
      "type": "function"
    },
    {
      "inputs": [
        {
          "internalType": "address",
          "name": "from",
          "type": "address"
        },
        {
          "internalType": "address",
          "name": "to",
          "type": "address"
        },
        {
          "internalType": "uint256",
          "name": "tokenId",
          "type": "uint256"
        }
      ],
      "name": "transferFrom",
      "outputs": [],
      "stateMutability": "nonpayable",
      "type": "function"
    },
    {
      "inputs": [
        {
          "internalType": "address",
          "name": "newOwner",
          "type": "address"
        }
      ],
      "name": "transferOwnership",
      "outputs": [],
      "stateMutability": "nonpayable",
      "type": "function"
    }
  ],
  "bytecode": "0x60806040523480156200001157600080fd5b5060405162003c2d38038062003c2d8339818101604052810190620000379190620003d2565b806040518060400160405280600981526020017f536f756c426f756e6400000000000000000000000000000000000000000000008152506040518060400160405280600381526020017f53425400000000000000000000000000000000000000000000000000000000008152508160009081620000b591906200067e565b508060019081620000c791906200067e565b505050600073ffffffffffffffffffffffffffffffffffffffff168173ffffffffffffffffffffffffffffffffffffffff16036200013f5760006040517f1e4fbdf700000000000000000000000000000000000000000000000000000000815260040162000136919062000776565b60405180910390fd5b6200015081620002a260201b60201c565b506001600a6040516200016390620007ee565b908152602001604051809103902060006101000a81548160ff0219169083151502179055506001600a6040516200019a9062000855565b908152602001604051809103902060006101000a81548160ff0219169083151502179055506001600a604051620001d190620008bc565b908152602001604051809103902060006101000a81548160ff0219169083151502179055506001600a604051620002089062000923565b908152602001604051809103902060006101000a81548160ff0219169083151502179055506001600a6040516200023f906200098a565b908152602001604051809103902060006101000a81548160ff0219169083151502179055506001600a6040516200027690620009f1565b908152602001604051809103902060006101000a81548160ff0219169083151502179055505062000a08565b6000600760009054906101000a900473ffffffffffffffffffffffffffffffffffffffff16905081600760006101000a81548173ffffffffffffffffffffffffffffffffffffffff021916908373ffffffffffffffffffffffffffffffffffffffff1602179055508173ffffffffffffffffffffffffffffffffffffffff168173ffffffffffffffffffffffffffffffffffffffff167f8be0079c531659141344cd1fd0a4f28419497f9722a3daafe3b4186f6b6457e060405160405180910390a35050565b600080fd5b600073ffffffffffffffffffffffffffffffffffffffff82169050919050565b60006200039a826200036d565b9050919050565b620003ac816200038d565b8114620003b857600080fd5b50565b600081519050620003cc81620003a1565b92915050565b600060208284031215620003eb57620003ea62000368565b5b6000620003fb84828501620003bb565b91505092915050565b600081519050919050565b7f4e487b7100000000000000000000000000000000000000000000000000000000600052604160045260246000fd5b7f4e487b7100000000000000000000000000000000000000000000000000000000600052602260045260246000fd5b600060028204905060018216806200048657607f821691505b6020821081036200049c576200049b6200043e565b5b50919050565b60008190508160005260206000209050919050565b60006020601f8301049050919050565b600082821b905092915050565b600060088302620005067fffffffffffffffffffffffffffffffffffffffffffffffffffffffffffffffff82620004c7565b620005128683620004c7565b95508019841693508086168417925050509392505050565b6000819050919050565b6000819050919050565b60006200055f6200055962000553846200052a565b62000534565b6200052a565b9050919050565b6000819050919050565b6200057b836200053e565b620005936200058a8262000566565b848454620004d4565b825550505050565b600090565b620005aa6200059b565b620005b781848462000570565b505050565b5b81811015620005df57620005d3600082620005a0565b600181019050620005bd565b5050565b601f8211156200062e57620005f881620004a2565b6200060384620004b7565b8101602085101562000613578190505b6200062b6200062285620004b7565b830182620005bc565b50505b505050565b600082821c905092915050565b6000620006536000198460080262000633565b1980831691505092915050565b60006200066e838362000640565b9150826002028217905092915050565b620006898262000404565b67ffffffffffffffff811115620006a557620006a46200040f565b5b620006b182546200046d565b620006be828285620005e3565b600060209050601f831160018114620006f65760008415620006e1578287015190505b620006ed858262000660565b8655506200075d565b601f1984166200070686620004a2565b60005b82811015620007305784890151825560018201915060208501945060208101905062000709565b868310156200075057848901516200074c601f89168262000640565b8355505b6001600288020188555050505b505050505050565b62000770816200038d565b82525050565b60006020820190506200078d600083018462000765565b92915050565b600081905092915050565b7f4954000000000000000000000000000000000000000000000000000000000000600082015250565b6000620007d660028362000793565b9150620007e3826200079e565b600282019050919050565b6000620007fb82620007c7565b9150819050919050565b7f434956494c000000000000000000000000000000000000000000000000000000600082015250565b60006200083d60058362000793565b91506200084a8262000805565b600582019050919050565b600062000862826200082e565b9150819050919050565b7f4353450000000000000000000000000000000000000000000000000000000000600082015250565b6000620008a460038362000793565b9150620008b1826200086c565b600382019050919050565b6000620008c98262000895565b9150819050919050565b7f4d45434800000000000000000000000000000000000000000000000000000000600082015250565b60006200090b60048362000793565b91506200091882620008d3565b600482019050919050565b60006200093082620008fc565b9150819050919050565b7f4543450000000000000000000000000000000000000000000000000000000000600082015250565b60006200097260038362000793565b91506200097f826200093a565b600382019050919050565b6000620009978262000963565b9150819050919050565b7f41494d4c00000000000000000000000000000000000000000000000000000000600082015250565b6000620009d960048362000793565b9150620009e682620009a1565b600482019050919050565b6000620009fe82620009ca565b9150819050919050565b6132158062000a186000396000f3fe608060405234801561001057600080fd5b506004361061012c5760003560e01c806386de9148116100ad578063c87b56dd11610071578063c87b56dd1461032d578063e364db181461035d578063e985e9c51461038d578063eca81d42146103bd578063f2fde38b146103d95761012c565b806386de9148146102895780638da5cb5b146102b957806395d89b41146102d7578063a22cb465146102f5578063b88d4fde146103115761012c565b806342842e0e116100f457806342842e0e146101e757806342966c68146102035780636352211e1461021f57806370a082311461024f578063715018a61461027f5761012c565b806301ffc9a71461013157806306fdde0314610161578063081812fc1461017f578063095ea7b3146101af57806323b872dd146101cb575b600080fd5b61014b600480360381019061014691906122c4565b6103f5565b604051610158919061230c565b60405180910390f35b610169610407565b60405161017691906123b7565b60405180910390f35b6101996004803603810190610194919061240f565b610499565b6040516101a6919061247d565b60405180910390f35b6101c960048036038101906101c491906124c4565b6104b5565b005b6101e560048036038101906101e09190612504565b6104cb565b005b61020160048036038101906101fc9190612504565b61068e565b005b61021d6004803603810190610218919061240f565b6106ae565b005b6102396004803603810190610234919061240f565b6107c9565b604051610246919061247d565b60405180910390f35b61026960048036038101906102649190612557565b6107db565b6040516102769190612593565b60405180910390f35b6102876108dd565b005b6102a3600480360381019061029e9190612613565b6108f1565b6040516102b0919061230c565b60405180910390f35b6102c1610929565b6040516102ce919061247d565b60405180910390f35b6102df610953565b6040516102ec91906123b7565b60405180910390f35b61030f600480360381019061030a919061268c565b6109e5565b005b61032b600480360381019061032691906127fc565b6109fb565b005b6103476004803603810190610342919061240f565b610a18565b60405161035491906123b7565b60405180910390f35b61037760048036038101906103729190612557565b610a2a565b60405161038491906123b7565b60405180910390f35b6103a760048036038101906103a2919061287f565b610b46565b6040516103b4919061230c565b60405180910390f35b6103d760048036038101906103d29190612960565b610bda565b005b6103f360048036038101906103ee9190612557565b610d82565b005b600061040082610e08565b9050919050565b60606000805461041690612a1a565b80601f016020809104026020016040519081016040528092919081815260200182805461044290612a1a565b801561048f5780601f106104645761010080835404028352916020019161048f565b820191906000526020600020905b81548152906001019060200180831161047257829003601f168201915b5050505050905090565b60006104a482610e69565b506104ae82610ef1565b9050919050565b6104c782826104c2610f2e565b610f36565b5050565b6104d3610f48565b3373ffffffffffffffffffffffffffffffffffffffff168373ffffffffffffffffffffffffffffffffffffffff1614801561053a5750600073ffffffffffffffffffffffffffffffffffffffff168273ffffffffffffffffffffffffffffffffffffffff16145b610579576040517f08c379a000000000000000000000000000000000000000000000000000000000815260040161057090612a97565b60405180910390fd5b3373ffffffffffffffffffffffffffffffffffffffff16610599826107c9565b73ffffffffffffffffffffffffffffffffffffffff16146105ef576040517f08c379a00000000000000000000000000000000000000000000000000000000081526004016105e690612b03565b60405180910390fd5b7fcc16f5dbb4873280815c1ee09dbd06736cffcc184412cf7a71a0fdb75d397ca58282604051610620929190612b23565b60405180910390a16000600b60003373ffffffffffffffffffffffffffffffffffffffff1673ffffffffffffffffffffffffffffffffffffffff16815260200190815260200160002060006101000a81548160ff02191690831515021790555061068981610fcf565b505050565b6106a9838383604051806020016040528060008152506109fb565b505050565b6106b6610f48565b3373ffffffffffffffffffffffffffffffffffffffff166106d6826107c9565b73ffffffffffffffffffffffffffffffffffffffff161461072c576040517f08c379a000000000000000000000000000000000000000000000000000000000815260040161072390612b03565b60405180910390fd5b6000600b60003373ffffffffffffffffffffffffffffffffffffffff1673ffffffffffffffffffffffffffffffffffffffff16815260200190815260200160002060006101000a81548160ff0219169083151502179055507fcc16f5dbb4873280815c1ee09dbd06736cffcc184412cf7a71a0fdb75d397ca533826040516107b5929190612b23565b60405180910390a16107c681610fcf565b50565b60006107d482610e69565b9050919050565b60006107e643611055565b610872826040518060400160405280600281526020017f3d3e000000000000000000000000000000000000000000000000000000000000815250600b60008673ffffffffffffffffffffffffffffffffffffffff1673ffffffffffffffffffffffffffffffffffffffff16815260200190815260200160002060009054906101000a900460ff166110ee565b60001515600b60008473ffffffffffffffffffffffffffffffffffffffff1673ffffffffffffffffffffffffffffffffffffffff16815260200190815260200160002060009054906101000a900460ff161515036108d357600090506108d8565b600190505b919050565b6108e5610f48565b6108ef600061118d565b565b6000600a8383604051610905929190612b7c565b908152602001604051809103902060009054906101000a900460ff16905092915050565b6000600760009054906101000a900473ffffffffffffffffffffffffffffffffffffffff16905090565b60606001805461096290612a1a565b80601f016020809104026020016040519081016040528092919081815260200182805461098e90612a1a565b80156109db5780601f106109b0576101008083540402835291602001916109db565b820191906000526020600020905b8154815290600101906020018083116109be57829003601f168201915b5050505050905090565b6109f76109f0610f2e565b8383611253565b5050565b610a068484846104cb565b610a12848484846113c2565b50505050565b6060610a2382611579565b9050919050565b60606001610a37836107db565b14610a77576040517f08c379a0000000000000000000000000000000000000000000000000000000008152600401610a6e90612be1565b60405180910390fd5b600960008373ffffffffffffffffffffffffffffffffffffffff1673ffffffffffffffffffffffffffffffffffffffff1681526020019081526020016000208054610ac190612a1a565b80601f0160208091040260200160405190810160405280929190818152602001828054610aed90612a1a565b8015610b3a5780601f10610b0f57610100808354040283529160200191610b3a565b820191906000526020600020905b815481529060010190602001808311610b1d57829003601f168201915b50505050509050919050565b6000600560008473ffffffffffffffffffffffffffffffffffffffff1673ffffffffffffffffffffffffffffffffffffffff16815260200190815260200160002060008373ffffffffffffffffffffffffffffffffffffffff1673ffffffffffffffffffffffffffffffffffffffff16815260200190815260200160002060009054906101000a900460ff16905092915050565b610be2610f48565b60011515600a82604051610bf69190612c32565b908152602001604051809103902060009054906101000a900460ff16151514610c54576040517f08c379a0000000000000000000000000000000000000000000000000000000008152600401610c4b90612c95565b60405180910390fd5b6000610c5f846107db565b14610c9f576040517f08c379a0000000000000000000000000000000000000000000000000000000008152600401610c9690612d27565b60405180910390fd5b610ca88361168c565b600060086000815480929190610cbd90612d76565b9190505590506001600b60008673ffffffffffffffffffffffffffffffffffffffff1673ffffffffffffffffffffffffffffffffffffffff16815260200190815260200160002060006101000a81548160ff021916908315150217905550610d258482611725565b610d2f818461181e565b81600960008673ffffffffffffffffffffffffffffffffffffffff1673ffffffffffffffffffffffffffffffffffffffff1681526020019081526020016000209081610d7b9190612f6a565b5050505050565b610d8a610f48565b600073ffffffffffffffffffffffffffffffffffffffff168173ffffffffffffffffffffffffffffffffffffffff1603610dfc5760006040517f1e4fbdf7000000000000000000000000000000000000000000000000000000008152600401610df3919061247d565b60405180910390fd5b610e058161118d565b50565b6000634906490660e01b7bffffffffffffffffffffffffffffffffffffffffffffffffffffffff1916827bffffffffffffffffffffffffffffffffffffffffffffffffffffffff19161480610e625750610e618261187a565b5b9050919050565b600080610e758361195c565b9050600073ffffffffffffffffffffffffffffffffffffffff168173ffffffffffffffffffffffffffffffffffffffff1603610ee857826040517f7e273289000000000000000000000000000000000000000000000000000000008152600401610edf9190612593565b60405180910390fd5b80915050919050565b60006004600083815260200190815260200160002060009054906101000a900473ffffffffffffffffffffffffffffffffffffffff169050919050565b600033905090565b610f438383836001611999565b505050565b610f50610f2e565b73ffffffffffffffffffffffffffffffffffffffff16610f6e610929565b73ffffffffffffffffffffffffffffffffffffffff1614610fcd57610f91610f2e565b6040517f118cdaa7000000000000000000000000000000000000000000000000000000008152600401610fc4919061247d565b60405180910390fd5b565b6000610fde6000836000611b5e565b9050600073ffffffffffffffffffffffffffffffffffffffff168173ffffffffffffffffffffffffffffffffffffffff160361105157816040517f7e2732890000000000000000000000000000000000000000000000000000000081526004016110489190612593565b60405180910390fd5b5050565b6110eb816040516024016110699190612593565b6040516020818303038152906040527ff82c50f1000000000000000000000000000000000000000000000000000000007bffffffffffffffffffffffffffffffffffffffffffffffffffffffff19166020820180517bffffffffffffffffffffffffffffffffffffffffffffffffffffffff8381831617835250505050611d78565b50565b6111888383836040516024016111069392919061303c565b6040516020818303038152906040527fcf020fb1000000000000000000000000000000000000000000000000000000007bffffffffffffffffffffffffffffffffffffffffffffffffffffffff19166020820180517bffffffffffffffffffffffffffffffffffffffffffffffffffffffff8381831617835250505050611d78565b505050565b6000600760009054906101000a900473ffffffffffffffffffffffffffffffffffffffff16905081600760006101000a81548173ffffffffffffffffffffffffffffffffffffffff021916908373ffffffffffffffffffffffffffffffffffffffff1602179055508173ffffffffffffffffffffffffffffffffffffffff168173ffffffffffffffffffffffffffffffffffffffff167f8be0079c531659141344cd1fd0a4f28419497f9722a3daafe3b4186f6b6457e060405160405180910390a35050565b600073ffffffffffffffffffffffffffffffffffffffff168273ffffffffffffffffffffffffffffffffffffffff16036112c457816040517f5b08ba180000000000000000000000000000000000000000000000000000000081526004016112bb919061247d565b60405180910390fd5b80600560008573ffffffffffffffffffffffffffffffffffffffff1673ffffffffffffffffffffffffffffffffffffffff16815260200190815260200160002060008473ffffffffffffffffffffffffffffffffffffffff1673ffffffffffffffffffffffffffffffffffffffff16815260200190815260200160002060006101000a81548160ff0219169083151502179055508173ffffffffffffffffffffffffffffffffffffffff168373ffffffffffffffffffffffffffffffffffffffff167f17307eab39ab6107e8899845ad3d59bd9653f200f220920489ca2b5937696c31836040516113b5919061230c565b60405180910390a3505050565b60008373ffffffffffffffffffffffffffffffffffffffff163b1115611573578273ffffffffffffffffffffffffffffffffffffffff1663150b7a02611406610f2e565b8685856040518563ffffffff1660e01b815260040161142894939291906130cf565b6020604051808303816000875af192505050801561146457506040513d601f19601f820116820180604052508101906114619190613130565b60015b6114e8573d8060008114611494576040519150601f19603f3d011682016040523d82523d6000602084013e611499565b606091505b5060008151036114e057836040517f64a0ae920000000000000000000000000000000000000000000000000000000081526004016114d7919061247d565b60405180910390fd5b805181602001fd5b63150b7a0260e01b7bffffffffffffffffffffffffffffffffffffffffffffffffffffffff1916817bffffffffffffffffffffffffffffffffffffffffffffffffffffffff19161461157157836040517f64a0ae92000000000000000000000000000000000000000000000000000000008152600401611568919061247d565b60405180910390fd5b505b50505050565b606061158482610e69565b5060006006600084815260200190815260200160002080546115a590612a1a565b80601f01602080910402602001604051908101604052809291908181526020018280546115d190612a1a565b801561161e5780601f106115f35761010080835404028352916020019161161e565b820191906000526020600020905b81548152906001019060200180831161160157829003601f168201915b50505050509050600061162f611d92565b90506000815103611644578192505050611687565b60008251111561167957808260405160200161166192919061315d565b60405160208183030381529060405292505050611687565b61168284611da9565b925050505b919050565b611722816040516024016116a0919061247d565b6040516020818303038152906040527f2c2ecbc2000000000000000000000000000000000000000000000000000000007bffffffffffffffffffffffffffffffffffffffffffffffffffffffff19166020820180517bffffffffffffffffffffffffffffffffffffffffffffffffffffffff8381831617835250505050611d78565b50565b600073ffffffffffffffffffffffffffffffffffffffff168273ffffffffffffffffffffffffffffffffffffffff16036117975760006040517f64a0ae9200000000000000000000000000000000000000000000000000000000815260040161178e919061247d565b60405180910390fd5b60006117a583836000611b5e565b9050600073ffffffffffffffffffffffffffffffffffffffff168173ffffffffffffffffffffffffffffffffffffffff16146118195760006040517f73c6ac6e000000000000000000000000000000000000000000000000000000008152600401611810919061247d565b60405180910390fd5b505050565b8060066000848152602001908152602001600020908161183e9190612f6a565b507ff8e1a15aba9398e019f0b49df1a4fde98ee17ae345cb5f6b5e2c27f5033e8ce78260405161186e9190612593565b60405180910390a15050565b60007f80ac58cd000000000000000000000000000000000000000000000000000000007bffffffffffffffffffffffffffffffffffffffffffffffffffffffff1916827bffffffffffffffffffffffffffffffffffffffffffffffffffffffff1916148061194557507f5b5e139f000000000000000000000000000000000000000000000000000000007bffffffffffffffffffffffffffffffffffffffffffffffffffffffff1916827bffffffffffffffffffffffffffffffffffffffffffffffffffffffff1916145b80611955575061195482611e12565b5b9050919050565b60006002600083815260200190815260200160002060009054906101000a900473ffffffffffffffffffffffffffffffffffffffff169050919050565b80806119d25750600073ffffffffffffffffffffffffffffffffffffffff168273ffffffffffffffffffffffffffffffffffffffff1614155b15611b065760006119e284610e69565b9050600073ffffffffffffffffffffffffffffffffffffffff168373ffffffffffffffffffffffffffffffffffffffff1614158015611a4d57508273ffffffffffffffffffffffffffffffffffffffff168173ffffffffffffffffffffffffffffffffffffffff1614155b8015611a605750611a5e8184610b46565b155b15611aa257826040517fa9fbf51f000000000000000000000000000000000000000000000000000000008152600401611a99919061247d565b60405180910390fd5b8115611b0457838573ffffffffffffffffffffffffffffffffffffffff168273ffffffffffffffffffffffffffffffffffffffff167f8c5be1e5ebec7d5bd14f71427d1e84f3dd0314c0f7b2291e5b200ac8c7c3b92560405160405180910390a45b505b836004600085815260200190815260200160002060006101000a81548173ffffffffffffffffffffffffffffffffffffffff021916908373ffffffffffffffffffffffffffffffffffffffff16021790555050505050565b600080611b6a8461195c565b9050600073ffffffffffffffffffffffffffffffffffffffff168373ffffffffffffffffffffffffffffffffffffffff1614611bac57611bab818486611e7c565b5b600073ffffffffffffffffffffffffffffffffffffffff168173ffffffffffffffffffffffffffffffffffffffff1614611c3d57611bee600085600080611999565b6001600360008373ffffffffffffffffffffffffffffffffffffffff1673ffffffffffffffffffffffffffffffffffffffff168152602001908152602001600020600082825403925050819055505b600073ffffffffffffffffffffffffffffffffffffffff168573ffffffffffffffffffffffffffffffffffffffff1614611cc0576001600360008773ffffffffffffffffffffffffffffffffffffffff1673ffffffffffffffffffffffffffffffffffffffff168152602001908152602001600020600082825401925050819055505b846002600086815260200190815260200160002060006101000a81548173ffffffffffffffffffffffffffffffffffffffff021916908373ffffffffffffffffffffffffffffffffffffffff160217905550838573ffffffffffffffffffffffffffffffffffffffff168273ffffffffffffffffffffffffffffffffffffffff167fddf252ad1be2c89b69c2b068fc378daa952ba7f163c4a11628f55a4df523b3ef60405160405180910390a4809150509392505050565b611d8f81611d87611f40611f61565b63ffffffff16565b50565b606060405180602001604052806000815250905090565b6060611db482610e69565b506000611dbf611d92565b90506000815111611ddf5760405180602001604052806000815250611e0a565b80611de984611f6c565b604051602001611dfa92919061315d565b6040516020818303038152906040525b915050919050565b60007f01ffc9a7000000000000000000000000000000000000000000000000000000007bffffffffffffffffffffffffffffffffffffffffffffffffffffffff1916827bffffffffffffffffffffffffffffffffffffffffffffffffffffffff1916149050919050565b611e8783838361203a565b611f3b57600073ffffffffffffffffffffffffffffffffffffffff168373ffffffffffffffffffffffffffffffffffffffff1603611efc57806040517f7e273289000000000000000000000000000000000000000000000000000000008152600401611ef39190612593565b60405180910390fd5b81816040517f177e802f000000000000000000000000000000000000000000000000000000008152600401611f32929190612b23565b60405180910390fd5b505050565b60006a636f6e736f6c652e6c6f679050600080835160208501845afa505050565b61224e819050919050565b606060006001611f7b846120fb565b01905060008167ffffffffffffffff811115611f9a57611f996126d1565b5b6040519080825280601f01601f191660200182016040528015611fcc5781602001600182028036833780820191505090505b509050600082602001820190505b60011561202f578080600190039150507f3031323334353637383961626364656600000000000000000000000000000000600a86061a8153600a858161202357612022613181565b5b04945060008503611fda575b819350505050919050565b60008073ffffffffffffffffffffffffffffffffffffffff168373ffffffffffffffffffffffffffffffffffffffff16141580156120f257508273ffffffffffffffffffffffffffffffffffffffff168473ffffffffffffffffffffffffffffffffffffffff1614806120b357506120b28484610b46565b5b806120f157508273ffffffffffffffffffffffffffffffffffffffff166120d983610ef1565b73ffffffffffffffffffffffffffffffffffffffff16145b5b90509392505050565b600080600090507a184f03e93ff9f4daa797ed6e38ed64bf6a1f0100000000000000008310612159577a184f03e93ff9f4daa797ed6e38ed64bf6a1f010000000000000000838161214f5761214e613181565b5b0492506040810190505b6d04ee2d6d415b85acef81000000008310612196576d04ee2d6d415b85acef8100000000838161218c5761218b613181565b5b0492506020810190505b662386f26fc1000083106121c557662386f26fc1000083816121bb576121ba613181565b5b0492506010810190505b6305f5e10083106121ee576305f5e10083816121e4576121e3613181565b5b0492506008810190505b612710831061221357612710838161220957612208613181565b5b0492506004810190505b60648310612236576064838161222c5761222b613181565b5b0492506002810190505b600a8310612245576001810190505b80915050919050565b6122566131b0565b565b6000604051905090565b600080fd5b600080fd5b60007fffffffff0000000000000000000000000000000000000000000000000000000082169050919050565b6122a18161226c565b81146122ac57600080fd5b50565b6000813590506122be81612298565b92915050565b6000602082840312156122da576122d9612262565b5b60006122e8848285016122af565b91505092915050565b60008115159050919050565b612306816122f1565b82525050565b600060208201905061232160008301846122fd565b92915050565b600081519050919050565b600082825260208201905092915050565b60005b83811015612361578082015181840152602081019050612346565b60008484015250505050565b6000601f19601f8301169050919050565b600061238982612327565b6123938185612332565b93506123a3818560208601612343565b6123ac8161236d565b840191505092915050565b600060208201905081810360008301526123d1818461237e565b905092915050565b6000819050919050565b6123ec816123d9565b81146123f757600080fd5b50565b600081359050612409816123e3565b92915050565b60006020828403121561242557612424612262565b5b6000612433848285016123fa565b91505092915050565b600073ffffffffffffffffffffffffffffffffffffffff82169050919050565b60006124678261243c565b9050919050565b6124778161245c565b82525050565b6000602082019050612492600083018461246e565b92915050565b6124a18161245c565b81146124ac57600080fd5b50565b6000813590506124be81612498565b92915050565b600080604083850312156124db576124da612262565b5b60006124e9858286016124af565b92505060206124fa858286016123fa565b9150509250929050565b60008060006060848603121561251d5761251c612262565b5b600061252b868287016124af565b935050602061253c868287016124af565b925050604061254d868287016123fa565b9150509250925092565b60006020828403121561256d5761256c612262565b5b600061257b848285016124af565b91505092915050565b61258d816123d9565b82525050565b60006020820190506125a86000830184612584565b92915050565b600080fd5b600080fd5b600080fd5b60008083601f8401126125d3576125d26125ae565b5b8235905067ffffffffffffffff8111156125f0576125ef6125b3565b5b60208301915083600182028301111561260c5761260b6125b8565b5b9250929050565b6000806020838503121561262a57612629612262565b5b600083013567ffffffffffffffff81111561264857612647612267565b5b612654858286016125bd565b92509250509250929050565b612669816122f1565b811461267457600080fd5b50565b60008135905061268681612660565b92915050565b600080604083850312156126a3576126a2612262565b5b60006126b1858286016124af565b92505060206126c285828601612677565b9150509250929050565b600080fd5b7f4e487b7100000000000000000000000000000000000000000000000000000000600052604160045260246000fd5b6127098261236d565b810181811067ffffffffffffffff82111715612728576127276126d1565b5b80604052505050565b600061273b612258565b90506127478282612700565b919050565b600067ffffffffffffffff821115612767576127666126d1565b5b6127708261236d565b9050602081019050919050565b82818337600083830152505050565b600061279f61279a8461274c565b612731565b9050828152602081018484840111156127bb576127ba6126cc565b5b6127c684828561277d565b509392505050565b600082601f8301126127e3576127e26125ae565b5b81356127f384826020860161278c565b91505092915050565b6000806000806080858703121561281657612815612262565b5b6000612824878288016124af565b9450506020612835878288016124af565b9350506040612846878288016123fa565b925050606085013567ffffffffffffffff81111561286757612866612267565b5b612873878288016127ce565b91505092959194509250565b6000806040838503121561289657612895612262565b5b60006128a4858286016124af565b92505060206128b5858286016124af565b9150509250929050565b600067ffffffffffffffff8211156128da576128d96126d1565b5b6128e38261236d565b9050602081019050919050565b60006129036128fe846128bf565b612731565b90508281526020810184848401111561291f5761291e6126cc565b5b61292a84828561277d565b509392505050565b600082601f830112612947576129466125ae565b5b81356129578482602086016128f0565b91505092915050565b60008060006060848603121561297957612978612262565b5b6000612987868287016124af565b935050602084013567ffffffffffffffff8111156129a8576129a7612267565b5b6129b486828701612932565b925050604084013567ffffffffffffffff8111156129d5576129d4612267565b5b6129e186828701612932565b9150509250925092565b7f4e487b7100000000000000000000000000000000000000000000000000000000600052602260045260246000fd5b60006002820490506001821680612a3257607f821691505b602082108103612a4557612a446129eb565b5b50919050565b7f596f752063616e2774207472616e73666572207468697320746f6b656e000000600082015250565b6000612a81601d83612332565b9150612a8c82612a4b565b602082019050919050565b60006020820190508181036000830152612ab081612a74565b9050919050565b7f4f6e6c79206f776e65722063616e206275726e20746f6b656e00000000000000600082015250565b6000612aed601983612332565b9150612af882612ab7565b602082019050919050565b60006020820190508181036000830152612b1c81612ae0565b9050919050565b6000604082019050612b38600083018561246e565b612b456020830184612584565b9392505050565b600081905092915050565b6000612b638385612b4c565b9350612b7083858461277d565b82840190509392505050565b6000612b89828486612b57565b91508190509392505050565b7f53686f756c642062652061206d656d6265722066697273740000000000000000600082015250565b6000612bcb601883612332565b9150612bd682612b95565b602082019050919050565b60006020820190508181036000830152612bfa81612bbe565b9050919050565b6000612c0c82612327565b612c168185612b4c565b9350612c26818560208601612343565b80840191505092915050565b6000612c3e8284612c01565b915081905092915050565b7f4e6f2073756368206465706172746d656e740000000000000000000000000000600082015250565b6000612c7f601283612332565b9150612c8a82612c49565b602082019050919050565b60006020820190508181036000830152612cae81612c72565b9050919050565b7f5342542063616e206f6e6c79206265206d696e746564206f6e636520666f722060008201527f6f6e652061646472657373000000000000000000000000000000000000000000602082015250565b6000612d11602b83612332565b9150612d1c82612cb5565b604082019050919050565b60006020820190508181036000830152612d4081612d04565b9050919050565b7f4e487b7100000000000000000000000000000000000000000000000000000000600052601160045260246000fd5b6000612d81826123d9565b91507fffffffffffffffffffffffffffffffffffffffffffffffffffffffffffffffff8203612db357612db2612d47565b5b600182019050919050565b60008190508160005260206000209050919050565b60006020601f8301049050919050565b600082821b905092915050565b600060088302612e207fffffffffffffffffffffffffffffffffffffffffffffffffffffffffffffffff82612de3565b612e2a8683612de3565b95508019841693508086168417925050509392505050565b6000819050919050565b6000612e67612e62612e5d846123d9565b612e42565b6123d9565b9050919050565b6000819050919050565b612e8183612e4c565b612e95612e8d82612e6e565b848454612df0565b825550505050565b600090565b612eaa612e9d565b612eb5818484612e78565b505050565b5b81811015612ed957612ece600082612ea2565b600181019050612ebb565b5050565b601f821115612f1e57612eef81612dbe565b612ef884612dd3565b81016020851015612f07578190505b612f1b612f1385612dd3565b830182612eba565b50505b505050565b600082821c905092915050565b6000612f4160001984600802612f23565b1980831691505092915050565b6000612f5a8383612f30565b9150826002028217905092915050565b612f7382612327565b67ffffffffffffffff811115612f8c57612f8b6126d1565b5b612f968254612a1a565b612fa1828285612edd565b600060209050601f831160018114612fd45760008415612fc2578287015190505b612fcc8582612f4e565b865550613034565b601f198416612fe286612dbe565b60005b8281101561300a57848901518255600182019150602085019450602081019050612fe5565b868310156130275784890151613023601f891682612f30565b8355505b6001600288020188555050505b505050505050565b6000606082019050613051600083018661246e565b8181036020830152613063818561237e565b905061307260408301846122fd565b949350505050565b600081519050919050565b600082825260208201905092915050565b60006130a18261307a565b6130ab8185613085565b93506130bb818560208601612343565b6130c48161236d565b840191505092915050565b60006080820190506130e4600083018761246e565b6130f1602083018661246e565b6130fe6040830185612584565b81810360608301526131108184613096565b905095945050505050565b60008151905061312a81612298565b92915050565b60006020828403121561314657613145612262565b5b60006131548482850161311b565b91505092915050565b60006131698285612c01565b91506131758284612c01565b91508190509392505050565b7f4e487b7100000000000000000000000000000000000000000000000000000000600052601260045260246000fd5b7f4e487b7100000000000000000000000000000000000000000000000000000000600052605160045260246000fdfea2646970667358221220df503bb927694948dd793ff4a1c6a100fa70a96c588645c84ee86b6aa93ff65264736f6c63430008140033",
  "linkReferences": {},
  "deployedLinkReferences": {}
}