{
  "_format": "hh-sol-artifact-1",
  "contractName": "Voting",
  "sourceName": "contracts/Voting.sol",
  "abi": [
    {
      "inputs": [
        {
          "internalType": "address",
          "name": "member",
          "type": "address"
        }
      ],
      "stateMutability": "nonpayable",
      "type": "constructor"
    },
    {
      "inputs": [],
      "name": "Voting_AlreadyVoted",
      "type": "error"
    },
    {
      "inputs": [],
      "name": "Voting_InactiveProposal",
      "type": "error"
    },
    {
      "inputs": [],
      "name": "Voting_InsufficientFunds",
      "type": "error"
    },
    {
      "inputs": [],
      "name": "Voting_InvalidProposal",
      "type": "error"
    },
    {
      "inputs": [],
      "name": "Voting_NotAMember",
      "type": "error"
    },
    {
      "inputs": [],
      "name": "Voting_TransactionFailed",
      "type": "error"
    },
    {
      "inputs": [
        {
          "internalType": "uint256",
          "name": "proposalId",
          "type": "uint256"
        }
      ],
      "name": "activateProposal",
      "outputs": [],
      "stateMutability": "nonpayable",
      "type": "function"
    },
    {
      "inputs": [
        {
          "internalType": "address",
          "name": "_proposer",
          "type": "address"
        },
        {
          "internalType": "string",
          "name": "_title",
          "type": "string"
        },
        {
          "internalType": "string",
          "name": "_description",
          "type": "string"
        },
        {
          "internalType": "uint256",
          "name": "_deadline",
          "type": "uint256"
        }
      ],
      "name": "createProposal",
      "outputs": [
        {
          "internalType": "uint256",
          "name": "",
          "type": "uint256"
        }
      ],
      "stateMutability": "nonpayable",
      "type": "function"
    },
    {
      "inputs": [
        {
          "internalType": "uint256",
          "name": "proposalId",
          "type": "uint256"
        }
      ],
      "name": "finalizeProposal",
      "outputs": [],
      "stateMutability": "nonpayable",
      "type": "function"
    },
    {
      "inputs": [],
      "name": "listProposals",
      "outputs": [
        {
          "components": [
            {
              "internalType": "uint256",
              "name": "id",
              "type": "uint256"
            },
            {
              "internalType": "address",
              "name": "proposer",
              "type": "address"
            },
            {
              "internalType": "uint256",
              "name": "deadline",
              "type": "uint256"
            },
            {
              "internalType": "string",
              "name": "title",
              "type": "string"
            },
            {
              "internalType": "string",
              "name": "description",
              "type": "string"
            },
            {
              "internalType": "bool",
              "name": "isActive",
              "type": "bool"
            },
            {
              "internalType": "bool",
              "name": "isCompleted",
              "type": "bool"
            },
            {
              "internalType": "uint256",
              "name": "yesCount",
              "type": "uint256"
            },
            {
              "internalType": "uint256",
              "name": "noCount",
              "type": "uint256"
            },
            {
              "internalType": "uint256",
              "name": "totalVoters",
              "type": "uint256"
            }
          ],
          "internalType": "struct Voting.ProposalExternalList[]",
          "name": "",
          "type": "tuple[]"
        }
      ],
      "stateMutability": "view",
      "type": "function"
    },
    {
      "inputs": [],
      "name": "n_proposals",
      "outputs": [
        {
          "internalType": "uint256",
          "name": "",
          "type": "uint256"
        }
      ],
      "stateMutability": "view",
      "type": "function"
    },
    {
      "inputs": [
        {
          "internalType": "uint256",
          "name": "",
          "type": "uint256"
        }
      ],
      "name": "proposals",
      "outputs": [
        {
          "internalType": "address",
          "name": "proposer",
          "type": "address"
        },
        {
          "internalType": "string",
          "name": "title",
          "type": "string"
        },
        {
          "internalType": "string",
          "name": "description",
          "type": "string"
        },
        {
          "internalType": "uint256",
          "name": "deadline",
          "type": "uint256"
        },
        {
          "internalType": "uint256",
          "name": "yesCount",
          "type": "uint256"
        },
        {
          "internalType": "uint256",
          "name": "noCount",
          "type": "uint256"
        },
        {
          "internalType": "uint256",
          "name": "totalVoters",
          "type": "uint256"
        },
        {
          "internalType": "bool",
          "name": "isActive",
          "type": "bool"
        },
        {
          "internalType": "bool",
          "name": "isCompleted",
          "type": "bool"
        }
      ],
      "stateMutability": "view",
      "type": "function"
    },
    {
      "inputs": [
        {
          "internalType": "address",
          "name": "voter",
          "type": "address"
        },
        {
          "internalType": "uint256",
          "name": "proposalId",
          "type": "uint256"
        },
        {
          "internalType": "bool",
          "name": "flag",
          "type": "bool"
        }
      ],
      "name": "voteProposal",
      "outputs": [],
      "stateMutability": "nonpayable",
      "type": "function"
    }
  ],
  "bytecode": "0x608060405260006002553480156200001657600080fd5b50604051620021503803806200215083398181016040528101906200003c9190620000ed565b806000806101000a81548173ffffffffffffffffffffffffffffffffffffffff021916908373ffffffffffffffffffffffffffffffffffffffff160217905550506200011f565b600080fd5b600073ffffffffffffffffffffffffffffffffffffffff82169050919050565b6000620000b58262000088565b9050919050565b620000c781620000a8565b8114620000d357600080fd5b50565b600081519050620000e781620000bc565b92915050565b60006020828403121562000106576200010562000083565b5b60006200011684828501620000d6565b91505092915050565b612021806200012f6000396000f3fe608060405234801561001057600080fd5b506004361061007d5760003560e01c806345ac59551161005b57806345ac5955146101085780635652077c14610124578063785ac47614610140578063e43192a61461015e5761007d565b8063013cf08b146100825780630f7e5256146100ba57806326c7eb1c146100ea575b600080fd5b61009c60048036038101906100979190611322565b61017a565b6040516100b19998979695949392919061144a565b60405180910390f35b6100d460048036038101906100cf9190611576565b610322565b6040516100e1919061161d565b60405180910390f35b6100f26104c1565b6040516100ff9190611852565b60405180910390f35b610122600480360381019061011d9190611322565b610758565b005b61013e60048036038101906101399190611322565b610a50565b005b610148610da6565b604051610155919061161d565b60405180910390f35b610178600480360381019061017391906118a0565b610dac565b005b6001818154811061018a57600080fd5b90600052602060002090600902016000915090508060000160009054906101000a900473ffffffffffffffffffffffffffffffffffffffff16908060010180546101d390611922565b80601f01602080910402602001604051908101604052809291908181526020018280546101ff90611922565b801561024c5780601f106102215761010080835404028352916020019161024c565b820191906000526020600020905b81548152906001019060200180831161022f57829003601f168201915b50505050509080600201805461026190611922565b80601f016020809104026020016040519081016040528092919081815260200182805461028d90611922565b80156102da5780601f106102af576101008083540402835291602001916102da565b820191906000526020600020905b8154815290600101906020018083116102bd57829003601f168201915b5050505050908060030154908060040154908060050154908060060154908060070160009054906101000a900460ff16908060070160019054906101000a900460ff16905089565b60008060008054906101000a900473ffffffffffffffffffffffffffffffffffffffff1673ffffffffffffffffffffffffffffffffffffffff166370a08231336040518263ffffffff1660e01b815260040161037e9190611953565b602060405180830381865afa15801561039b573d6000803e3d6000fd5b505050506040513d601f19601f820116820180604052508101906103bf9190611983565b116103f6576040517fe25ef63b00000000000000000000000000000000000000000000000000000000815260040160405180910390fd5b6000600180816001815401808255809150500390600052602060002090600902019050878160000160006101000a81548173ffffffffffffffffffffffffffffffffffffffff021916908373ffffffffffffffffffffffffffffffffffffffff160217905550868682600101918261046f929190611b96565b508484826002019182610483929190611b96565b50828160030181905550600260008154809291906104a090611c95565b919050555060016002546104b49190611cdd565b9150509695505050505050565b6060600060025467ffffffffffffffff8111156104e1576104e06119bb565b5b60405190808252806020026020018201604052801561051a57816020015b610507611275565b8152602001906001900390816104ff5790505b50905060005b600254811015610750576000600182815481106105405761053f611d11565b5b906000526020600020906009020190506040518061014001604052808381526020018260000160009054906101000a900473ffffffffffffffffffffffffffffffffffffffff1673ffffffffffffffffffffffffffffffffffffffff168152602001826003015481526020018260010180546105bb90611922565b80601f01602080910402602001604051908101604052809291908181526020018280546105e790611922565b80156106345780601f1061060957610100808354040283529160200191610634565b820191906000526020600020905b81548152906001019060200180831161061757829003601f168201915b5050505050815260200182600201805461064d90611922565b80601f016020809104026020016040519081016040528092919081815260200182805461067990611922565b80156106c65780601f1061069b576101008083540402835291602001916106c6565b820191906000526020600020905b8154815290600101906020018083116106a957829003601f168201915b505050505081526020018260070160009054906101000a900460ff16151581526020018260070160019054906101000a900460ff16151581526020018260040154815260200182600501548152602001826006015481525083838151811061073157610730611d11565b5b602002602001018190525050808061074890611c95565b915050610520565b508091505090565b806002548110158061078e5750426001828154811061077a57610779611d11565b5b906000526020600020906009020160030154105b806107cf575060011515600182815481106107ac576107ab611d11565b5b906000526020600020906009020160070160019054906101000a900460ff161515145b15610806576040517fbeeb2e5300000000000000000000000000000000000000000000000000000000815260040160405180910390fd5b60008060009054906101000a900473ffffffffffffffffffffffffffffffffffffffff1673ffffffffffffffffffffffffffffffffffffffff166370a08231336040518263ffffffff1660e01b81526004016108629190611953565b602060405180830381865afa15801561087f573d6000803e3d6000fd5b505050506040513d601f19601f820116820180604052508101906108a39190611983565b116108da576040517fe25ef63b00000000000000000000000000000000000000000000000000000000815260040160405180910390fd5b6000600183815481106108f0576108ef611d11565b5b906000526020600020906009020190503373ffffffffffffffffffffffffffffffffffffffff168160000160009054906101000a900473ffffffffffffffffffffffffffffffffffffffff1673ffffffffffffffffffffffffffffffffffffffff1614610992576040517f08c379a000000000000000000000000000000000000000000000000000000000815260040161098990611db2565b60405180910390fd5b60006203f480426109a39190611dd2565b905060006202a300426109b69190611dd2565b905080836003015410806109cd5750818360030154115b610a0c576040517f08c379a0000000000000000000000000000000000000000000000000000000008152600401610a0390611e78565b60405180910390fd5b6001808681548110610a2157610a20611d11565b5b906000526020600020906009020160070160006101000a81548160ff0219169083151502179055505050505050565b8060025481101580610a8657504260018281548110610a7257610a71611d11565b5b906000526020600020906009020160030154105b80610ac757506001151560018281548110610aa457610aa3611d11565b5b906000526020600020906009020160070160019054906101000a900460ff161515145b15610afe576040517fbeeb2e5300000000000000000000000000000000000000000000000000000000815260040160405180910390fd5b60008060009054906101000a900473ffffffffffffffffffffffffffffffffffffffff1673ffffffffffffffffffffffffffffffffffffffff166370a08231336040518263ffffffff1660e01b8152600401610b5a9190611953565b602060405180830381865afa158015610b77573d6000803e3d6000fd5b505050506040513d601f19601f82011682018060405250810190610b9b9190611983565b11610bd2576040517fe25ef63b00000000000000000000000000000000000000000000000000000000815260040160405180910390fd5b816000151560018281548110610beb57610bea611d11565b5b906000526020600020906009020160070160009054906101000a900460ff16151503610c43576040517fa74a8c1300000000000000000000000000000000000000000000000000000000815260040160405180910390fd5b600060018481548110610c5957610c58611d11565b5b9060005260206000209060090201905060018481548110610c7d57610c7c611d11565b5b906000526020600020906009020160000160009054906101000a900473ffffffffffffffffffffffffffffffffffffffff1673ffffffffffffffffffffffffffffffffffffffff163373ffffffffffffffffffffffffffffffffffffffff1614610d1c576040517f08c379a0000000000000000000000000000000000000000000000000000000008152600401610d1390611f0a565b60405180910390fd5b8060050154816004015411610d66576040517f08c379a0000000000000000000000000000000000000000000000000000000008152600401610d5d90611f9c565b60405180910390fd5b60008160070160006101000a81548160ff02191690831515021790555060018160070160016101000a81548160ff02191690831515021790555050505050565b60025481565b60008060009054906101000a900473ffffffffffffffffffffffffffffffffffffffff1673ffffffffffffffffffffffffffffffffffffffff166370a08231336040518263ffffffff1660e01b8152600401610e089190611953565b602060405180830381865afa158015610e25573d6000803e3d6000fd5b505050506040513d601f19601f82011682018060405250810190610e499190611983565b11610e80576040517fe25ef63b00000000000000000000000000000000000000000000000000000000815260040160405180910390fd5b8260008060009054906101000a900473ffffffffffffffffffffffffffffffffffffffff1673ffffffffffffffffffffffffffffffffffffffff166370a08231836040518263ffffffff1660e01b8152600401610edd9190611953565b602060405180830381865afa158015610efa573d6000803e3d6000fd5b505050506040513d601f19601f82011682018060405250810190610f1e9190611983565b11610f55576040517fe25ef63b00000000000000000000000000000000000000000000000000000000815260040160405180910390fd5b82846001151560018381548110610f6f57610f6e611d11565b5b906000526020600020906009020160080160008373ffffffffffffffffffffffffffffffffffffffff1673ffffffffffffffffffffffffffffffffffffffff16815260200190815260200160002060009054906101000a900460ff16151503611004576040517fdffbeecb00000000000000000000000000000000000000000000000000000000815260040160405180910390fd5b846002548110158061103a5750426001828154811061102657611025611d11565b5b906000526020600020906009020160030154105b8061107b5750600115156001828154811061105857611057611d11565b5b906000526020600020906009020160070160019054906101000a900460ff161515145b156110b2576040517fbeeb2e5300000000000000000000000000000000000000000000000000000000815260040160405180910390fd5b8560001515600182815481106110cb576110ca611d11565b5b906000526020600020906009020160070160009054906101000a900460ff16151503611123576040517fa74a8c1300000000000000000000000000000000000000000000000000000000815260040160405180910390fd5b60006001888154811061113957611138611d11565b5b9060005260206000209060090201905060018160080160008b73ffffffffffffffffffffffffffffffffffffffff1673ffffffffffffffffffffffffffffffffffffffff16815260200190815260200160002060006101000a81548160ff0219169083151502179055508060060160008154809291906111b890611c95565b9190505550600060011515881515146111d25760016111d5565b60005b9050600060018111156111eb576111ea611fbc565b5b8160018111156111fe576111fd611fbc565b5b036112225781600401600081548092919061121890611c95565b9190505550611269565b60018081111561123557611234611fbc565b5b81600181111561124857611247611fbc565b5b036112685781600501600081548092919061126290611c95565b91905055505b5b50505050505050505050565b60405180610140016040528060008152602001600073ffffffffffffffffffffffffffffffffffffffff1681526020016000815260200160608152602001606081526020016000151581526020016000151581526020016000815260200160008152602001600081525090565b600080fd5b600080fd5b6000819050919050565b6112ff816112ec565b811461130a57600080fd5b50565b60008135905061131c816112f6565b92915050565b600060208284031215611338576113376112e2565b5b60006113468482850161130d565b91505092915050565b600073ffffffffffffffffffffffffffffffffffffffff82169050919050565b600061137a8261134f565b9050919050565b61138a8161136f565b82525050565b600081519050919050565b600082825260208201905092915050565b60005b838110156113ca5780820151818401526020810190506113af565b60008484015250505050565b6000601f19601f8301169050919050565b60006113f282611390565b6113fc818561139b565b935061140c8185602086016113ac565b611415816113d6565b840191505092915050565b611429816112ec565b82525050565b60008115159050919050565b6114448161142f565b82525050565b600061012082019050611460600083018c611381565b8181036020830152611472818b6113e7565b90508181036040830152611486818a6113e7565b90506114956060830189611420565b6114a26080830188611420565b6114af60a0830187611420565b6114bc60c0830186611420565b6114c960e083018561143b565b6114d761010083018461143b565b9a9950505050505050505050565b6114ee8161136f565b81146114f957600080fd5b50565b60008135905061150b816114e5565b92915050565b600080fd5b600080fd5b600080fd5b60008083601f84011261153657611535611511565b5b8235905067ffffffffffffffff81111561155357611552611516565b5b60208301915083600182028301111561156f5761156e61151b565b5b9250929050565b60008060008060008060808789031215611593576115926112e2565b5b60006115a189828a016114fc565b965050602087013567ffffffffffffffff8111156115c2576115c16112e7565b5b6115ce89828a01611520565b9550955050604087013567ffffffffffffffff8111156115f1576115f06112e7565b5b6115fd89828a01611520565b9350935050606061161089828a0161130d565b9150509295509295509295565b60006020820190506116326000830184611420565b92915050565b600081519050919050565b600082825260208201905092915050565b6000819050602082019050919050565b61166d816112ec565b82525050565b61167c8161136f565b82525050565b600082825260208201905092915050565b600061169e82611390565b6116a88185611682565b93506116b88185602086016113ac565b6116c1816113d6565b840191505092915050565b6116d58161142f565b82525050565b6000610140830160008301516116f46000860182611664565b5060208301516117076020860182611673565b50604083015161171a6040860182611664565b50606083015184820360608601526117328282611693565b9150506080830151848203608086015261174c8282611693565b91505060a083015161176160a08601826116cc565b5060c083015161177460c08601826116cc565b5060e083015161178760e0860182611664565b5061010083015161179c610100860182611664565b506101208301516117b1610120860182611664565b508091505092915050565b60006117c883836116db565b905092915050565b6000602082019050919050565b60006117e882611638565b6117f28185611643565b93508360208202850161180485611654565b8060005b85811015611840578484038952815161182185826117bc565b945061182c836117d0565b925060208a01995050600181019050611808565b50829750879550505050505092915050565b6000602082019050818103600083015261186c81846117dd565b905092915050565b61187d8161142f565b811461188857600080fd5b50565b60008135905061189a81611874565b92915050565b6000806000606084860312156118b9576118b86112e2565b5b60006118c7868287016114fc565b93505060206118d88682870161130d565b92505060406118e98682870161188b565b9150509250925092565b7f4e487b7100000000000000000000000000000000000000000000000000000000600052602260045260246000fd5b6000600282049050600182168061193a57607f821691505b60208210810361194d5761194c6118f3565b5b50919050565b60006020820190506119686000830184611381565b92915050565b60008151905061197d816112f6565b92915050565b600060208284031215611999576119986112e2565b5b60006119a78482850161196e565b91505092915050565b600082905092915050565b7f4e487b7100000000000000000000000000000000000000000000000000000000600052604160045260246000fd5b60008190508160005260206000209050919050565b60006020601f8301049050919050565b600082821b905092915050565b600060088302611a4c7fffffffffffffffffffffffffffffffffffffffffffffffffffffffffffffffff82611a0f565b611a568683611a0f565b95508019841693508086168417925050509392505050565b6000819050919050565b6000611a93611a8e611a89846112ec565b611a6e565b6112ec565b9050919050565b6000819050919050565b611aad83611a78565b611ac1611ab982611a9a565b848454611a1c565b825550505050565b600090565b611ad6611ac9565b611ae1818484611aa4565b505050565b5b81811015611b0557611afa600082611ace565b600181019050611ae7565b5050565b601f821115611b4a57611b1b816119ea565b611b24846119ff565b81016020851015611b33578190505b611b47611b3f856119ff565b830182611ae6565b50505b505050565b600082821c905092915050565b6000611b6d60001984600802611b4f565b1980831691505092915050565b6000611b868383611b5c565b9150826002028217905092915050565b611ba083836119b0565b67ffffffffffffffff811115611bb957611bb86119bb565b5b611bc38254611922565b611bce828285611b09565b6000601f831160018114611bfd5760008415611beb578287013590505b611bf58582611b7a565b865550611c5d565b601f198416611c0b866119ea565b60005b82811015611c3357848901358255600182019150602085019450602081019050611c0e565b86831015611c505784890135611c4c601f891682611b5c565b8355505b6001600288020188555050505b50505050505050565b7f4e487b7100000000000000000000000000000000000000000000000000000000600052601160045260246000fd5b6000611ca0826112ec565b91507fffffffffffffffffffffffffffffffffffffffffffffffffffffffffffffffff8203611cd257611cd1611c66565b5b600182019050919050565b6000611ce8826112ec565b9150611cf3836112ec565b9250828203905081811115611d0b57611d0a611c66565b5b92915050565b7f4e487b7100000000000000000000000000000000000000000000000000000000600052603260045260246000fd5b7f4f6e6c79207468652070726f706f7365722063616e206163746976617465207460008201527f68652070726f706f73616c000000000000000000000000000000000000000000602082015250565b6000611d9c602b8361139b565b9150611da782611d40565b604082019050919050565b60006020820190508181036000830152611dcb81611d8f565b9050919050565b6000611ddd826112ec565b9150611de8836112ec565b9250828201905080821115611e0057611dff611c66565b5b92915050565b7f50726f706f73616c206e6f7420696e2061637469766174696f6e20706572696f60008201527f6400000000000000000000000000000000000000000000000000000000000000602082015250565b6000611e6260218361139b565b9150611e6d82611e06565b604082019050919050565b60006020820190508181036000830152611e9181611e55565b9050919050565b7f4f6e6c792070726f706f7365722063616e2066696c616c697a6520746865207060008201527f726f706f73616c00000000000000000000000000000000000000000000000000602082015250565b6000611ef460278361139b565b9150611eff82611e98565b604082019050919050565b60006020820190508181036000830152611f2381611ee7565b9050919050565b7f4e6f7420656e6f756768206d656d62657273206163636570746564207468652060008201527f70726f706f73616c000000000000000000000000000000000000000000000000602082015250565b6000611f8660288361139b565b9150611f9182611f2a565b604082019050919050565b60006020820190508181036000830152611fb581611f79565b9050919050565b7f4e487b7100000000000000000000000000000000000000000000000000000000600052602160045260246000fdfea2646970667358221220635c832bdd7bf4ad1c7a3f33a6de62939965579359b05bd02d0af7dbbf63997564736f6c63430008140033",
  "linkReferences": {},
  "deployedLinkReferences": {}
}