{
  "_format": "hh-sol-artifact-1",
  "contractName": "Voting",
  "sourceName": "contracts/Voting.sol",
  "abi": [
    {
      "inputs": [
        {
          "internalType": "address",
          "name": "member",
          "type": "address"
        }
      ],
      "stateMutability": "nonpayable",
      "type": "constructor"
    },
    {
      "inputs": [],
      "name": "Voting_AlreadyVoted",
      "type": "error"
    },
    {
      "inputs": [],
      "name": "Voting_InactiveProposal",
      "type": "error"
    },
    {
      "inputs": [],
      "name": "Voting_InsufficientFunds",
      "type": "error"
    },
    {
      "inputs": [],
      "name": "Voting_InvalidProposal",
      "type": "error"
    },
    {
      "inputs": [],
      "name": "Voting_NotAMember",
      "type": "error"
    },
    {
      "inputs": [],
      "name": "Voting_TransactionFailed",
      "type": "error"
    },
    {
      "inputs": [
        {
          "internalType": "uint256",
          "name": "proposalId",
          "type": "uint256"
        }
      ],
      "name": "activateProposal",
      "outputs": [],
      "stateMutability": "nonpayable",
      "type": "function"
    },
    {
      "inputs": [
        {
          "internalType": "address",
          "name": "_proposer",
          "type": "address"
        },
        {
          "internalType": "string",
          "name": "_title",
          "type": "string"
        },
        {
          "internalType": "string",
          "name": "_description",
          "type": "string"
        },
        {
          "internalType": "uint256",
          "name": "_deadline",
          "type": "uint256"
        }
      ],
      "name": "createProposal",
      "outputs": [
        {
          "internalType": "uint256",
          "name": "",
          "type": "uint256"
        }
      ],
      "stateMutability": "nonpayable",
      "type": "function"
    },
    {
      "inputs": [
        {
          "internalType": "uint256",
          "name": "proposalId",
          "type": "uint256"
        }
      ],
      "name": "finalizeProposal",
      "outputs": [],
      "stateMutability": "nonpayable",
      "type": "function"
    },
    {
      "inputs": [],
      "name": "n_proposals",
      "outputs": [
        {
          "internalType": "uint256",
          "name": "",
          "type": "uint256"
        }
      ],
      "stateMutability": "view",
      "type": "function"
    },
    {
      "inputs": [
        {
          "internalType": "uint256",
          "name": "",
          "type": "uint256"
        }
      ],
      "name": "proposals",
      "outputs": [
        {
          "internalType": "address",
          "name": "proposer",
          "type": "address"
        },
        {
          "internalType": "string",
          "name": "title",
          "type": "string"
        },
        {
          "internalType": "string",
          "name": "description",
          "type": "string"
        },
        {
          "internalType": "uint256",
          "name": "deadline",
          "type": "uint256"
        },
        {
          "internalType": "uint256",
          "name": "yesCount",
          "type": "uint256"
        },
        {
          "internalType": "uint256",
          "name": "noCount",
          "type": "uint256"
        },
        {
          "internalType": "uint256",
          "name": "totalVoters",
          "type": "uint256"
        },
        {
          "internalType": "bool",
          "name": "isActive",
          "type": "bool"
        },
        {
          "internalType": "bool",
          "name": "isCompleted",
          "type": "bool"
        }
      ],
      "stateMutability": "view",
      "type": "function"
    },
    {
      "inputs": [
        {
          "internalType": "address",
          "name": "voter",
          "type": "address"
        },
        {
          "internalType": "uint256",
          "name": "proposalId",
          "type": "uint256"
        },
        {
          "internalType": "bool",
          "name": "flag",
          "type": "bool"
        }
      ],
      "name": "voteProposal",
      "outputs": [],
      "stateMutability": "nonpayable",
      "type": "function"
    }
  ],
  "bytecode": "0x608060405260006002553480156200001657600080fd5b5060405162001bd738038062001bd783398181016040528101906200003c9190620000ed565b806000806101000a81548173ffffffffffffffffffffffffffffffffffffffff021916908373ffffffffffffffffffffffffffffffffffffffff160217905550506200011f565b600080fd5b600073ffffffffffffffffffffffffffffffffffffffff82169050919050565b6000620000b58262000088565b9050919050565b620000c781620000a8565b8114620000d357600080fd5b50565b600081519050620000e781620000bc565b92915050565b60006020828403121562000106576200010562000083565b5b60006200011684828501620000d6565b91505092915050565b611aa8806200012f6000396000f3fe608060405234801561001057600080fd5b50600436106100625760003560e01c8063013cf08b146100675780630f7e52561461009f57806345ac5955146100cf5780635652077c146100eb578063785ac47614610107578063e43192a614610125575b600080fd5b610081600480360381019061007c9190610fe5565b610141565b6040516100969998979695949392919061110d565b60405180910390f35b6100b960048036038101906100b49190611239565b6102e9565b6040516100c691906112e0565b60405180910390f35b6100e960048036038101906100e49190610fe5565b610488565b005b61010560048036038101906101009190610fe5565b610780565b005b61010f610ad6565b60405161011c91906112e0565b60405180910390f35b61013f600480360381019061013a9190611327565b610adc565b005b6001818154811061015157600080fd5b90600052602060002090600902016000915090508060000160009054906101000a900473ffffffffffffffffffffffffffffffffffffffff169080600101805461019a906113a9565b80601f01602080910402602001604051908101604052809291908181526020018280546101c6906113a9565b80156102135780601f106101e857610100808354040283529160200191610213565b820191906000526020600020905b8154815290600101906020018083116101f657829003601f168201915b505050505090806002018054610228906113a9565b80601f0160208091040260200160405190810160405280929190818152602001828054610254906113a9565b80156102a15780601f10610276576101008083540402835291602001916102a1565b820191906000526020600020905b81548152906001019060200180831161028457829003601f168201915b5050505050908060030154908060040154908060050154908060060154908060070160009054906101000a900460ff16908060070160019054906101000a900460ff16905089565b60008060008054906101000a900473ffffffffffffffffffffffffffffffffffffffff1673ffffffffffffffffffffffffffffffffffffffff166370a08231336040518263ffffffff1660e01b815260040161034591906113da565b602060405180830381865afa158015610362573d6000803e3d6000fd5b505050506040513d601f19601f82011682018060405250810190610386919061140a565b116103bd576040517fe25ef63b00000000000000000000000000000000000000000000000000000000815260040160405180910390fd5b6000600180816001815401808255809150500390600052602060002090600902019050878160000160006101000a81548173ffffffffffffffffffffffffffffffffffffffff021916908373ffffffffffffffffffffffffffffffffffffffff160217905550868682600101918261043692919061161d565b50848482600201918261044a92919061161d565b50828160030181905550600260008154809291906104679061171c565b9190505550600160025461047b9190611764565b9150509695505050505050565b80600254811015806104be575042600182815481106104aa576104a9611798565b5b906000526020600020906009020160030154105b806104ff575060011515600182815481106104dc576104db611798565b5b906000526020600020906009020160070160019054906101000a900460ff161515145b15610536576040517fbeeb2e5300000000000000000000000000000000000000000000000000000000815260040160405180910390fd5b60008060009054906101000a900473ffffffffffffffffffffffffffffffffffffffff1673ffffffffffffffffffffffffffffffffffffffff166370a08231336040518263ffffffff1660e01b815260040161059291906113da565b602060405180830381865afa1580156105af573d6000803e3d6000fd5b505050506040513d601f19601f820116820180604052508101906105d3919061140a565b1161060a576040517fe25ef63b00000000000000000000000000000000000000000000000000000000815260040160405180910390fd5b6000600183815481106106205761061f611798565b5b906000526020600020906009020190503373ffffffffffffffffffffffffffffffffffffffff168160000160009054906101000a900473ffffffffffffffffffffffffffffffffffffffff1673ffffffffffffffffffffffffffffffffffffffff16146106c2576040517f08c379a00000000000000000000000000000000000000000000000000000000081526004016106b990611839565b60405180910390fd5b60006203f480426106d39190611859565b905060006202a300426106e69190611859565b905080836003015410806106fd5750818360030154115b61073c576040517f08c379a0000000000000000000000000000000000000000000000000000000008152600401610733906118ff565b60405180910390fd5b600180868154811061075157610750611798565b5b906000526020600020906009020160070160006101000a81548160ff0219169083151502179055505050505050565b80600254811015806107b6575042600182815481106107a2576107a1611798565b5b906000526020600020906009020160030154105b806107f7575060011515600182815481106107d4576107d3611798565b5b906000526020600020906009020160070160019054906101000a900460ff161515145b1561082e576040517fbeeb2e5300000000000000000000000000000000000000000000000000000000815260040160405180910390fd5b60008060009054906101000a900473ffffffffffffffffffffffffffffffffffffffff1673ffffffffffffffffffffffffffffffffffffffff166370a08231336040518263ffffffff1660e01b815260040161088a91906113da565b602060405180830381865afa1580156108a7573d6000803e3d6000fd5b505050506040513d601f19601f820116820180604052508101906108cb919061140a565b11610902576040517fe25ef63b00000000000000000000000000000000000000000000000000000000815260040160405180910390fd5b81600015156001828154811061091b5761091a611798565b5b906000526020600020906009020160070160009054906101000a900460ff16151503610973576040517fa74a8c1300000000000000000000000000000000000000000000000000000000815260040160405180910390fd5b60006001848154811061098957610988611798565b5b90600052602060002090600902019050600184815481106109ad576109ac611798565b5b906000526020600020906009020160000160009054906101000a900473ffffffffffffffffffffffffffffffffffffffff1673ffffffffffffffffffffffffffffffffffffffff163373ffffffffffffffffffffffffffffffffffffffff1614610a4c576040517f08c379a0000000000000000000000000000000000000000000000000000000008152600401610a4390611991565b60405180910390fd5b8060050154816004015411610a96576040517f08c379a0000000000000000000000000000000000000000000000000000000008152600401610a8d90611a23565b60405180910390fd5b60008160070160006101000a81548160ff02191690831515021790555060018160070160016101000a81548160ff02191690831515021790555050505050565b60025481565b60008060009054906101000a900473ffffffffffffffffffffffffffffffffffffffff1673ffffffffffffffffffffffffffffffffffffffff166370a08231336040518263ffffffff1660e01b8152600401610b3891906113da565b602060405180830381865afa158015610b55573d6000803e3d6000fd5b505050506040513d601f19601f82011682018060405250810190610b79919061140a565b11610bb0576040517fe25ef63b00000000000000000000000000000000000000000000000000000000815260040160405180910390fd5b8260008060009054906101000a900473ffffffffffffffffffffffffffffffffffffffff1673ffffffffffffffffffffffffffffffffffffffff166370a08231836040518263ffffffff1660e01b8152600401610c0d91906113da565b602060405180830381865afa158015610c2a573d6000803e3d6000fd5b505050506040513d601f19601f82011682018060405250810190610c4e919061140a565b11610c85576040517fe25ef63b00000000000000000000000000000000000000000000000000000000815260040160405180910390fd5b82846001151560018381548110610c9f57610c9e611798565b5b906000526020600020906009020160080160008373ffffffffffffffffffffffffffffffffffffffff1673ffffffffffffffffffffffffffffffffffffffff16815260200190815260200160002060009054906101000a900460ff16151503610d34576040517fdffbeecb00000000000000000000000000000000000000000000000000000000815260040160405180910390fd5b8460025481101580610d6a57504260018281548110610d5657610d55611798565b5b906000526020600020906009020160030154105b80610dab57506001151560018281548110610d8857610d87611798565b5b906000526020600020906009020160070160019054906101000a900460ff161515145b15610de2576040517fbeeb2e5300000000000000000000000000000000000000000000000000000000815260040160405180910390fd5b856000151560018281548110610dfb57610dfa611798565b5b906000526020600020906009020160070160009054906101000a900460ff16151503610e53576040517fa74a8c1300000000000000000000000000000000000000000000000000000000815260040160405180910390fd5b600060018881548110610e6957610e68611798565b5b9060005260206000209060090201905060018160080160008b73ffffffffffffffffffffffffffffffffffffffff1673ffffffffffffffffffffffffffffffffffffffff16815260200190815260200160002060006101000a81548160ff021916908315150217905550806006016000815480929190610ee89061171c565b919050555060006001151588151514610f02576001610f05565b60005b905060006001811115610f1b57610f1a611a43565b5b816001811115610f2e57610f2d611a43565b5b03610f5257816004016000815480929190610f489061171c565b9190505550610f99565b600180811115610f6557610f64611a43565b5b816001811115610f7857610f77611a43565b5b03610f9857816005016000815480929190610f929061171c565b91905055505b5b50505050505050505050565b600080fd5b600080fd5b6000819050919050565b610fc281610faf565b8114610fcd57600080fd5b50565b600081359050610fdf81610fb9565b92915050565b600060208284031215610ffb57610ffa610fa5565b5b600061100984828501610fd0565b91505092915050565b600073ffffffffffffffffffffffffffffffffffffffff82169050919050565b600061103d82611012565b9050919050565b61104d81611032565b82525050565b600081519050919050565b600082825260208201905092915050565b60005b8381101561108d578082015181840152602081019050611072565b60008484015250505050565b6000601f19601f8301169050919050565b60006110b582611053565b6110bf818561105e565b93506110cf81856020860161106f565b6110d881611099565b840191505092915050565b6110ec81610faf565b82525050565b60008115159050919050565b611107816110f2565b82525050565b600061012082019050611123600083018c611044565b8181036020830152611135818b6110aa565b90508181036040830152611149818a6110aa565b905061115860608301896110e3565b61116560808301886110e3565b61117260a08301876110e3565b61117f60c08301866110e3565b61118c60e08301856110fe565b61119a6101008301846110fe565b9a9950505050505050505050565b6111b181611032565b81146111bc57600080fd5b50565b6000813590506111ce816111a8565b92915050565b600080fd5b600080fd5b600080fd5b60008083601f8401126111f9576111f86111d4565b5b8235905067ffffffffffffffff811115611216576112156111d9565b5b602083019150836001820283011115611232576112316111de565b5b9250929050565b6000806000806000806080878903121561125657611255610fa5565b5b600061126489828a016111bf565b965050602087013567ffffffffffffffff81111561128557611284610faa565b5b61129189828a016111e3565b9550955050604087013567ffffffffffffffff8111156112b4576112b3610faa565b5b6112c089828a016111e3565b935093505060606112d389828a01610fd0565b9150509295509295509295565b60006020820190506112f560008301846110e3565b92915050565b611304816110f2565b811461130f57600080fd5b50565b600081359050611321816112fb565b92915050565b6000806000606084860312156113405761133f610fa5565b5b600061134e868287016111bf565b935050602061135f86828701610fd0565b925050604061137086828701611312565b9150509250925092565b7f4e487b7100000000000000000000000000000000000000000000000000000000600052602260045260246000fd5b600060028204905060018216806113c157607f821691505b6020821081036113d4576113d361137a565b5b50919050565b60006020820190506113ef6000830184611044565b92915050565b60008151905061140481610fb9565b92915050565b6000602082840312156114205761141f610fa5565b5b600061142e848285016113f5565b91505092915050565b600082905092915050565b7f4e487b7100000000000000000000000000000000000000000000000000000000600052604160045260246000fd5b60008190508160005260206000209050919050565b60006020601f8301049050919050565b600082821b905092915050565b6000600883026114d37fffffffffffffffffffffffffffffffffffffffffffffffffffffffffffffffff82611496565b6114dd8683611496565b95508019841693508086168417925050509392505050565b6000819050919050565b600061151a61151561151084610faf565b6114f5565b610faf565b9050919050565b6000819050919050565b611534836114ff565b61154861154082611521565b8484546114a3565b825550505050565b600090565b61155d611550565b61156881848461152b565b505050565b5b8181101561158c57611581600082611555565b60018101905061156e565b5050565b601f8211156115d1576115a281611471565b6115ab84611486565b810160208510156115ba578190505b6115ce6115c685611486565b83018261156d565b50505b505050565b600082821c905092915050565b60006115f4600019846008026115d6565b1980831691505092915050565b600061160d83836115e3565b9150826002028217905092915050565b6116278383611437565b67ffffffffffffffff8111156116405761163f611442565b5b61164a82546113a9565b611655828285611590565b6000601f8311600181146116845760008415611672578287013590505b61167c8582611601565b8655506116e4565b601f19841661169286611471565b60005b828110156116ba57848901358255600182019150602085019450602081019050611695565b868310156116d757848901356116d3601f8916826115e3565b8355505b6001600288020188555050505b50505050505050565b7f4e487b7100000000000000000000000000000000000000000000000000000000600052601160045260246000fd5b600061172782610faf565b91507fffffffffffffffffffffffffffffffffffffffffffffffffffffffffffffffff8203611759576117586116ed565b5b600182019050919050565b600061176f82610faf565b915061177a83610faf565b9250828203905081811115611792576117916116ed565b5b92915050565b7f4e487b7100000000000000000000000000000000000000000000000000000000600052603260045260246000fd5b7f4f6e6c79207468652070726f706f7365722063616e206163746976617465207460008201527f68652070726f706f73616c000000000000000000000000000000000000000000602082015250565b6000611823602b8361105e565b915061182e826117c7565b604082019050919050565b6000602082019050818103600083015261185281611816565b9050919050565b600061186482610faf565b915061186f83610faf565b9250828201905080821115611887576118866116ed565b5b92915050565b7f50726f706f73616c206e6f7420696e2061637469766174696f6e20706572696f60008201527f6400000000000000000000000000000000000000000000000000000000000000602082015250565b60006118e960218361105e565b91506118f48261188d565b604082019050919050565b60006020820190508181036000830152611918816118dc565b9050919050565b7f4f6e6c792070726f706f7365722063616e2066696c616c697a6520746865207060008201527f726f706f73616c00000000000000000000000000000000000000000000000000602082015250565b600061197b60278361105e565b91506119868261191f565b604082019050919050565b600060208201905081810360008301526119aa8161196e565b9050919050565b7f4e6f7420656e6f756768206d656d62657273206163636570746564207468652060008201527f70726f706f73616c000000000000000000000000000000000000000000000000602082015250565b6000611a0d60288361105e565b9150611a18826119b1565b604082019050919050565b60006020820190508181036000830152611a3c81611a00565b9050919050565b7f4e487b7100000000000000000000000000000000000000000000000000000000600052602160045260246000fdfea2646970667358221220e115fbf45fead4c38520a4fe2e50232d6a6d2213828a69d6ac847190522a752c64736f6c63430008140033",
  "linkReferences": {},
  "deployedLinkReferences": {}
}